:020000040000FA
:100000000C9490000C94B8000C94B8000C94B800B8
:100010000C94B8000C94B8000C94B8000C94B80080
:100020000C94B8000C94B8000C94B8000C942C1EDE
:100030000C94B8000C94B8000C94B8000C94B80060
:100040000C94E21D0C94B8000C94B01D0C948A1D05
:100050000C94B8000C94B8000C94B8000C94B80040
:100060000C94B8000C94B8004E414E494E49545976
:10007000494E46CDCCCC3D0AD7233C17B7D1387773
:10008000CC2B329595E6241FB14F0A000020410089
:1000900000C84200401C4620BCBE4CCA1B0E5AAED3
:1000A000C59D74005EBCE2613FDD83C29C7E20A3DF
:1000B000FD1F41009D23BE46DB65F88C11AF32CA9F
:1000C00057E9740000000800020100000304070063
:1000D0000000000000000000000000250028002BA8
:1000E0000000000000240027002A00000000002378
:1000F000002600290004040404040404040202028B
:100100000202020303030303030102040810204058
:100110008001020408102001020408102000E81EDB
:1001200011241FBECFEFD8E0DEBFCDBF12E0A0E0AC
:10013000B1E0EEECFFE402C005900D92A837B107E4
:10014000D9F724E0A8E7B2E001C01D92A830B207B9
:10015000E1F710E0C0E9D0E004C02197FE010E9461
:10016000DD25CF38D107C9F70E9471200C94E5270F
:100170000C9400008CBD9DBD0895FC01818D928D75
:10018000089508950895DB0114964D915C9115979B
:100190006D917C91DC01ED91FC910280F381E02D69
:1001A0000994AF92BF92CF92DF92EF92FF920F939A
:1001B0001F93CF93DF936C017B018B01040F151FFD
:1001C000EB015E01AE18BF08C017D10759F0699165
:1001D000D601ED91FC910190F081E02DC6010995C9
:1001E000892B79F7C501DF91CF911F910F91FF9076
:1001F000EF90DF90CF90BF90AF900895FC01538DAA
:10020000448D252F30E0842F90E0821B930B5417F0
:1002100010F0CF96089501970895FC01918D828D7D
:10022000981761F0A28DAE0FBF2FB11D5D968C9116
:10023000928D9F5F9F73928F90E008958FEF9FEF55
:100240000895FC01918D828D981731F0828DE80F11
:10025000F11D858D90E008958FEF9FEF0895FC01CB
:10026000918D228D892F90E0805C9F4F821B910998
:100270008F739927089588EB92E00E942F0121E067
:10028000892B09F420E0822F089580E090E0892BEB
:1002900029F00E943B0181110C9400000895FC019B
:1002A000A48DA80FB92FB11DA35ABF4F2C91848DD7
:1002B00090E001968F739927848FA689B7892C9334
:1002C000A089B1898C91837080648C93938D848D87
:1002D000981306C00288F389E02D80818F7D80838A
:1002E0000895EF92FF920F931F93CF93DF93EC014A
:1002F00081E0888F9B8D8C8D98131AC0E889F989CD
:10030000808185FF15C09FB7F894EE89FF896083CF
:10031000E889F98980818370806480839FBF81E050
:1003200090E0DF91CF911F910F91FF90EF90089592
:10033000F62E0B8D10E00F5F1F4F0F731127E02E6D
:100340008C8D8E110CC00FB607FCFACFE889F989A5
:10035000808185FFF5CFCE010E944F01F1CFEB8D5B
:10036000EC0FFD2FF11DE35AFF4FF0829FB7F89479
:100370000B8FEA89FB8980818062CFCFCF93DF9397
:10038000EC01888D8823B9F0AA89BB89E889F989AD
:100390008C9185FD03C0808186FD0DC00FB607FCE2
:1003A000F7CF8C9185FFF2CF808185FFEDCFCE0115
:1003B0000E944F01E9CFDF91CF910895833081F002
:1003C00028F4813099F08230A9F008958730A9F09F
:1003D0008830C9F08430B1F4809180008F7D03C0F3
:1003E000809180008F7780938000089584B58F7707
:1003F00084BD089584B58F7DFBCF8091B0008F7749
:100400008093B00008958091B0008F7DF9CFCF9395
:10041000DF93282F30E0F901ED53FF4F8491F9016C
:10042000E75FFE4FD491F901EB50FF4FC491CC230D
:10043000A1F081110E94DE01EC2FF0E0EE0FFF1F12
:10044000E551FF4FA591B491EC91ED2381E090E04F
:1004500009F480E0DF91CF91089580E090E0FACF39
:100460001F93CF93DF93282F30E0F901ED53FF4F17
:100470008491F901E75FFE4FD491F901EB50FF4FF2
:10048000C491CC23A9F0162F81110E94DE01EC2F1C
:10049000F0E0EE0FFF1FE952FF4FA591B4918FB727
:1004A000F894EC91111108C0D095DE23DC938FBF36
:1004B000DF91CF911F910895DE2BF8CFCF93DF937B
:1004C00090E0FC01E75FFE4F24918B509F4FFC01B1
:1004D00084918823D1F090E0880F991FFC01EF519F
:1004E000FF4FA591B491FC01E952FF4FC591D49102
:1004F00061110EC09FB7F8948C91E22FE0958E2386
:100500008C932881E223E8839FBFDF91CF910895E8
:100510008FB7F894EC91E22BEC938FBFF6CF8E500F
:10052000806480937C0080917A00806480937A005C
:1005300080917A0086FDFCCF8091780090917900BF
:1005400008953FB7F8948091910290919202A09102
:100550009302B091940226B5A89B05C02F3F19F0D5
:100560000196A11DB11D3FBFBA2FA92F982F882733
:10057000BC01CD01620F711D811D911D42E0660F0E
:10058000771F881F991F4A95D1F708958F929F92E0
:10059000AF92BF92CF92DF92EF92FF926B017C01FC
:1005A0000E94A1024B015C01C114D104E104F104D9
:1005B000B9F00E94A102681979098A099B09683E6D
:1005C00073408105910580F321E0C21AD108E1084A
:1005D000F10888EE880E83E0981EA11CB11CE4CFC0
:1005E000FF90EF90DF90CF90BF90AF909F908F9053
:1005F00008952FB7F89460918D0270918E028091CA
:100600008F02909190022FBF08958F929F92AF9288
:10061000BF92CF92DF92EF92FF92FC01828158E568
:10062000C52E52E0D52EC81AD10887FDD394CC0C24
:10063000DD1CCC0CDD1C0D2C000CEE08FF088181AC
:1006400078E8872E912C881A910887FD9394880C5E
:10065000991C880C991C092C000CAA08BB088081E5
:100660008F3FD1F190E0FC01EE0FFF1FE80FF91F63
:10067000E557FC4F8181928133E0880F991F3A95AD
:10068000E1F7B0E0A0E044E0B595A7959795879590
:100690004A95D1F702969C012F5F3F4F032E000C25
:1006A000440B550B281939094A095B09A4EBB0E042
:1006B0000E948124A7019601281939094A095B097A
:1006C0000E946224C901FF90EF90DF90CF90BF900D
:1006D000AF909F908F90089590E080E0DCCFCF9214
:1006E000DF92EF92FF92CF93DF93EC01603282E0D2
:1006F0007807CCF5653B710514F064EB70E08981F7
:1007000028E830E0281B310987FD3395220F331F7D
:10071000220F331F6901330FEE08FF088A8128E595
:1007200032E0281B310987FD3395220F331F220F3A
:10073000331F032E000C440B550B2C193D094E0999
:100740005F09DB0177FF02C0B0E0A0E00E948C24CB
:1007500024EB30E040E050E00E946224C20ED31E41
:10076000E41EF51EB601E881EC3070F5298188E8B9
:1007700090E0821B910927FD9395880F991F880FA0
:10078000991F681779077CF02A8188E592E0821B1F
:10079000910927FD9395880F991F880F991F681756
:1007A00079070CF4CB010297880F991F4FB7F89483
:1007B0002E2F30E0F901EE0FFF1FE20FF31FE55778
:1007C000FC4F928381834FBFDF91CF91FF90EF90D9
:1007D000DF90CF9008951F93CF93DF93EC01162FF6
:1007E00088818C3008F04EC061E0812F0E945E024B
:1007F0008881282F30E0F901EE0FFF1FE20FF31F71
:10080000E557FC4F1F736081607C612B6083198208
:100810001A822CE0622F0E94A925829FB001112428
:1008200030E020E0AB01420F531FFA01EE0FFF1F33
:10083000E40FF51FE557FC4F908196FD16C02F5F22
:100840003F4F2C30310571F781110FC0109280009D
:1008500082E0809381001092850010928400B19A0A
:1008600080916F00826080936F00E8818E2F90E00E
:10087000FC01EE0FFF1FE80FF91FE557FC4F8081C9
:10088000806480838881DF91CF911F910895FC015E
:1008900020812EBD9B012150310941F051810DB4C1
:1008A00007FEFDCF4EB55EBD4193F5CF6150710996
:1008B000860F971F0DB407FEFDCF2EB5FC012083D8
:1008C0000895E091B202F091B30280819091B1025B
:1008D000892B80830895E091B202F091B302908158
:1008E0008091B10280958923808308958EBD000098
:1008F0000DB407FEFDCF8EB50895AF92BF92CF9293
:10090000DF92EF92FF920F931F93CF93DF93CDB7B8
:10091000DEB728970FB6F894DEBF0FBECDBF8C01AF
:100920007B016A018091B5028333E1F45801A40E82
:10093000B51EA016B10609F46FC00E946B0480EFCB
:100940000E947604812F0E947604802F0E947604F4
:100950000F5F1F4FF70181917F010E9476040E9473
:100960006104E7CF5B01A40EB51E8433C1F40E947D
:100970006B0419830A838D2D80688B83CC8264E09D
:1009800070E0CE0101960E944704AE14BF0409F442
:1009900041C0F70181917F010E947604F6CF0E9449
:1009A0006B040F3F110509F028F419820A8384E0D3
:1009B0008B830CC017FD17C019820A8333E016958C
:1009C00007953A95E1F7007E0C600B8386E0C81628
:1009D000D104A0F5F701DE011496EA15FB0599F0A4
:1009E00081918D93FACFC80126E0969587952A9537
:1009F000E1F7807E19830A830115104C10F484619D
:100A0000D7CF8C61D5CFB6016D5F7F4FCE010196F8
:100A10000E9447040E946104C60128960FB6F8940C
:100A2000DEBF0FBECDBFDF91CF911F910F91FF9021
:100A3000EF90DF90CF90BF90AF90089563E070E0AB
:100A4000CE0101960E944704F70181917F010E9427
:100A50007604AE14BF04C1F7DDCFCF93DF931F92AE
:100A6000CDB7DEB7898341E050E0BE016F5F7F4FB5
:100A700090E080E00E947D040F90DF91CF91089577
:100A800090E02091B502233339F40C96982F990FFA
:100A9000990F990F80E008954896F8CFDA01E09118
:100AA000B602F0E0FE2FEE27E60FF71F90E0982F3A
:100AB0008827A901BD018E0F9F1F0C947D04CF9341
:100AC000DF9300D0CDB7DEB779836A8322E030E0D0
:100AD000AE014F5F5F4F60E170E00E944E050F90E6
:100AE0000F90DF91CF910895CF93DF9300D0CDB7D2
:100AF000DEB779836A8322E030E0AE014F5F5F4F5B
:100B000064E070E00E944E050F900F90DF91CF914E
:100B10000895CF93DF931F92CDB7DEB72091B60231
:100B200030E0322F2227260F371F90E0982F88279A
:100B3000498341E050E0BE016F5F7F4F820F931FFA
:100B40000E947D040F90DF91CF910895CF93DF93A2
:100B50001F92CDB7DEB76983DC01ED91FC91028075
:100B6000F381E02D41E050E0BE016F5F7F4F0995BA
:100B70000F90DF91CF910895FC019485FB0184854E
:100B8000981303C081E0943008F080E00895CF937B
:100B9000DF931F92CDB7DEB76983DC01ED91FC9145
:100BA0000280F381E02D41E050E0BE016F5F7F4F96
:100BB00009950F90DF91CF9108950895FF920F93BB
:100BC0001F93CF93DF93EB01FC01178A168A2A81CA
:100BD000211109C02B81211106C02C81211103C0D4
:100BE0002D81222301F141155105E9F08A01FC0113
:100BF000F08C80E591E00E94BA00AE014E5F5F4F3D
:100C000024E030E06CE070E08F2D0E944E05B801CA
:100C10008F2D0E945F0581E090E0DF91CF911F91C1
:100C20000F91FF90089580E0F7CFFC0184859585B2
:100C30000895FC0184899589089526EA31E0FC0134
:100C400031832083FB014089518962897389FC01CA
:100C500042835383648375830895DC01ED91FC9195
:100C6000048CF58DE02D099490E080E00895DC017E
:100C700080E0615090F09D919827E92FEF70F0E0AF
:100C8000ED55FF4F2491E92FE295EF70F0E0ED5420
:100C9000FF4FE491822F8E27ECCF0895DC012C9139
:100CA0001196ED91FC91F8948181822B8183928140
:100CB000322F30959323928387E090E00197F1F7EC
:100CC00081818323818383E290E00197F1F7908112
:100CD0007894EFECF0E03197F1F7922381E009F49A
:100CE00080E00895FC0190810180F281E02D292FA0
:100CF000209560FF14C0F8948281822382838181D1
:100D0000892B8183A3E2B0E01197F1F78281982BC0
:100D10009283789487ED90E00197F1F70895F89425
:100D20008281822382838181892B8183AFEFB0E02E
:100D30001197F1F78281982B928378948FE090E05D
:100D4000EBCFDF92EF92FF920F931F93CF93DF933E
:100D5000EC01D62EE42E08E010E0FF24F39461E0CD
:100D60008D2D8F2109F460E0CE010E947206FF0CE8
:100D700001501109A1F7E11010C0F894E981FA813E
:100D800091818881809589238183E981FA8192818B
:100D900088818095892382837894DF91CF911F91F8
:100DA0000F91FF90EF90DF900895FC0190810180FA
:100DB000F281E02DF8948181292F2095822381836F
:100DC00078943DE743E050E0315029F1DA01119782
:100DD000F1F780818923C1F3F89482818223828391
:100DE0008181892B81837894ABE7B7E01197F1F784
:100DF000F894818182238183A3E1B1E01197F1F717
:100E00008081982381E009F080E07894E3E6F6E0C1
:100E10003197F1F7089580E00895FC0176876587A2
:100E20000895DC01ED91FC91068CF78DE02D09957C
:100E300091E089270895862F089581E086270895F7
:100E400021E0FC018485843008F020E0822F0895A1
:100E5000FB0101900020E9F73197AF01461B570BCA
:100E6000DC01ED91FC910280F381E02D09948F92D9
:100E70009F92AF92BF92EF92FF920F931F93CF93E7
:100E8000DF93CDB7DEB7A1970FB6F894DEBF0FBEE4
:100E9000CDBF7C01FA01CB0119A2223008F42AE06F
:100EA0008E010F5D1F4F822E912CB12CA12CBF0102
:100EB000A50194010E94CB24F901CA016A300CF506
:100EC000605DD8016E938D01232B242B252B79F7A0
:100ED00090E080E0109721F0BD01C7010E94280733
:100EE000A1960FB6F894DEBF0FBECDBFDF91CF91B4
:100EF0001F910F91FF90EF90BF90AF909F908F90B8
:100F00000895695CDECFCF93DF93BC0188EB92E05C
:100F10000E942807EC0168EA71E088EB92E00E94E9
:100F200028078C0F9D1FDF91CF910895FC018081D0
:100F30009181009711F00C947F260895FC01248183
:100F40003581232B39F421E0FB018081882349F08E
:100F500020E007C0808191810E94D52721E0892B64
:100F6000B9F7822F08950F931F93CF93DF93EC016E
:100F700088819981009759F02A813B81261737078C
:100F800030F081E0DF91CF911F910F9108958B0197
:100F90006F5F7F4F0E940827009759F099838883DD
:100FA0001B830A832C813D81232B59F7FC0110827E
:100FB000E8CF80E0E7CFEF92FF920F931F93CF939C
:100FC000DF93EC017B01198218821B821A821D8239
:100FD0001C82FB0101900020E9F731978F01061B6D
:100FE000170BB8010E94B30728813981811113C002
:100FF0002115310519F0C9010E947F261982188236
:101000001D821C821B821A82DF91CF911F910F914A
:10101000FF90EF9008951D830C83B701C901DF9104
:10102000CF911F910F91FF90EF900C94DE27EF92DC
:10103000FF920F931F93CF93DF93EC017B01FB0192
:1010400001900020E9F731978F01061B170BB801BB
:101050000E94B30728813981811113C02115310500
:1010600019F0C9010E947F26198218821D821C82F4
:101070001B821A82DF91CF911F910F91FF90EF9009
:1010800008951D830C83B701C901DF91CF911F9192
:101090000F91FF90EF900C94DE278F929F92AF926A
:1010A000BF92CF92DF92EF92FF920F931F93CF9355
:1010B000DF937C01EB016C0182E0C80ED11C47017B
:1010C000E5E08E0E911C10E000E0F60141916F0109
:1010D00050E070E060E02AE0CE010E9437075C013A
:1010E000E881F9810190F081E02D6EE2CE01099551
:1010F0008A0D9B1D080F191FC814D90431F7F70179
:10110000458150E070E060E02AE0CE010E943707A0
:10111000800F911FDF91CF911F910F91FF90EF9062
:10112000DF90CF90BF90AF909F908F900895AF9237
:10113000BF92CF92DF92EF92FF920F931F93CF93C4
:10114000DF9300D000D0CDB7DEB78C016B017A0100
:101150008091B5028333E9F45B016801C40ED51EAA
:10116000C016D106A9F10E946B048FE00E9476049C
:10117000812F0E947604802F0E9476040F5F1F4FFC
:1011800080E00E947604F50181935F010E94610472
:10119000E7CF843369F50E946B0419830A838F2D8E
:1011A0008F778B83EC8264E070E0CE0101960E9421
:1011B0004704A70170E060E0C6010E94CE27E11459
:1011C000F10421F0B701C6010E9447040E946104A6
:1011D000C7010F900F900F900F90DF91CF911F914B
:1011E0000F91FF90EF90DF90CF90BF90AF90089558
:1011F0000E946B040F3F110509F030F419820A8335
:101200001B8263E070E0D1CF17FD0BC019820A8307
:1012100033E0169507953A95E1F7007E08600B8359
:10122000F0CFC80126E0969587952A95E1F7807E54
:1012300019830A830115104C18F480618B83E1CF68
:101240008861FCCFCF93DF931F92CDB7DEB720919B
:10125000B60230E0322F2227260F371F90E0982F5A
:10126000882741E050E0BE016F5F7F4F820F931FE0
:101270000E94970889810F90DF91CF910895CF93B5
:10128000C82F462F61E070E00E94890561E070E0A0
:101290008C2F0E9422098111F9CFCF910895CF930D
:1012A000C82F80E591E00E94BA0068E070E08C2FC2
:1012B000CF910C943F09CF93C82F80E591E00E9415
:1012C000BA0060E170E08C2FCF910C943F09CF936E
:1012D000DF93EC01888D843020F40E945B0984E068
:1012E000888FDF91CF910895CF93C82F80E591E04B
:1012F0000E94BA0063E070E08C2FCF910C94220919
:10130000CF93DF93EC018C858430D0F40E94740974
:10131000843189F0882379F0883169F021E08C31BB
:1013200059F4E881F9810084F185E02DCE01099519
:1013300021E0892B09F420E0822FDF91CF910895DD
:1013400080E0FBCFCF92DF92EF92FF92CF93DF93BB
:10135000EC018C85843068F40E944F090E94F902E8
:101360006B017C018C850E947409811109C084E0A5
:101370008C87DF91CF91FF90EF90DF90CF90089511
:1013800061E070E080E090E00E94C6020E94F902F5
:10139000AB01BC014C195D096E097F098D859E85E5
:1013A000B0E0A0E0481759076A077B07D8F28C85A0
:1013B0000E945B09DCCFCF93FC01C08D80E591E0FA
:1013C0000E94BA0060E270E08C2F0E943F0962E048
:1013D00070E08C2F0E94220984FD16C062E070E04C
:1013E0008C2F0E94220983FF0AC048E162E070E06E
:1013F0008C2F0E94890580E090E0CF91089580E5D0
:1014000091E00E94BA00E3CF40E162E070E08C2FEF
:101410000E94890581E0F0CFCF93DF931F92CDB773
:10142000DEB741E050E0BE016F5F7F4F90E080E0AB
:101430000E94970889810F90DF91CF910895CF93F3
:10144000DF93C4E1D0E00E940C0A882361F061E0E0
:1014500070E080E090E00E94C6022197A1F780E052
:10146000DF91CF91089581E0FBCFCF92DF92EF9291
:10147000FF920F931F93CF93DF93CDB7DEB7C45482
:10148000D1090FB6F894DEBF0FBECDBFFC0182813B
:101490009381A481B58123968CAF9DAFAEAFBFAFD2
:1014A000239721E023962FAF239723964CAD5DAD74
:1014B0006EAD7FAD23974BAB5CAB6DAB7EAB89AFB5
:1014C0009AAFABAFBCAF8DA79EA7AFA7B8AB28AB09
:1014D0004DA55EA56FA578A94FA358A769A77AA7C0
:1014E0002EAB4BA95CA96DA97EA949A35AA36BA3F6
:1014F0007CA38B8F9C8FAD8FBE8F46EA51E05C8BB7
:101500004B8B3FEF3D8B3E8B3F8B188E5E874D871D
:101510002AA7CFA0D8A4E9A4FAA4CF86D88AE98ABA
:10152000FA8A2CA309A11AA12BA13CA109871A8729
:101530002B873C875A8349838B839C83AD83BE83EF
:101540008091B7028111AFC060E372E080E090E06B
:101550000E94C602DFB6F8940FEF10E033E1E32EED
:1015600031E0F32E8091B402811125C0F8018491FD
:10157000F7019491E82FF0E0EE0FFF1FEF51FF4FBE
:10158000A591B4918C91982321F461E08AE00E94A6
:10159000300261E08AE00E945E028CB580618CBD01
:1015A0008CB580648CBD61E08DE00E945E0261E0DC
:1015B0008BE00E945E028091B4028F5F8093B40240
:1015C000DFBEF8010491E02FF0E0EE0FFF1FE952BB
:1015D000FF4F859194919093B3028093B202F701EB
:1015E000E490E092B10261E08AE00E945E020E9413
:1015F000610480E591E00E94BA0084E38093B50223
:1016000080E80E942D050E941F0A882309F481C0EA
:1016100088E00E942D050E940C0A883009F079C0EC
:1016200080E10E942D050E940C0A803109F071C0F2
:1016300080E00E942D050E940C0A182F811169C0BC
:1016400041E050E0BE016D5B7F4F8FE190E00E9472
:10165000970824968FAD2497833009F05AC080E410
:101660008093B60242E06EE170E0812F0E9489050E
:1016700042E06FE170E0812F0E9489051F5F143006
:1016800089F740E06EE170E0812F0E94890540E01B
:101690006FE170E0812F0E9489051F5F183089F784
:1016A00081E08093B70280E591E00E94BA0046E0B5
:1016B00050E06EE071E089E090E00E947D0444E03B
:1016C00050E0BE016D5F7F4F8FE090E00E947D048F
:1016D00044E050E0BE01615F7F4F81E090E00E94F6
:1016E0007D0444E050E0BE016B5E7F4F85E090E0FA
:1016F0000E947D0481E08C8789859A85AB85BC85B5
:101700008093750390937603A0937703B093780347
:101710006FC087E38093B50280E80E942D050E9488
:101720001F0A882339F188E00E942D050E940C0AC7
:10173000883001F580E10E942D050E940C0A182FC7
:101740008031C1F480E00E942D050E940C0A8111B5
:1017500011C041E050E0BE016D5B7F4F89E390E036
:101760000E94970824968FAD2497843019F4109323
:10177000B60296CF83E38093B50280E80E942D05E0
:101780000E941F0A882391F180E10E942D050E948A
:101790000C0A803159F582E10E942D050E940C0A45
:1017A000823121F580E00E942D050E940C0A8111F2
:1017B0001DC084E08093B60215E525961FAF2597DE
:1017C00041E050E0BE016C5B7F4F8BE190E00E94F6
:1017D0007D0424961FAF249741E050E0BE016D5B6D
:1017E0007F4F8AE190E00E947D045ACF1092B502AB
:1017F000CC5BDF4F0FB6F894DEBF0FBECDBFDF91DD
:10180000CF911F910F91FF90EF90DF90CF900895AF
:101810001F93CF93DF931F92CDB7DEB7182F80E5CC
:1018200091E00E94BA00812F0E94400527E0129F9C
:10183000F0011124EB56FD4F22813381377041E0D6
:1018400050E0BE016F5F7F4F820F931F0E94970889
:1018500089810F90DF91CF911F910895FC01808DB8
:10186000843040F4218D328D232B21F00E94080C0E
:1018700090E008958FEF9FEF0895CF93DF93FC01E1
:101880002485243028F08FEF9FEFDF91CF910895CA
:10189000EC010190F081E02D0084F185E02D0995A7
:1018A000892B89F38C850E94080C90E0EECFDA0139
:1018B000E091B602F0E0FE2FEE27E60FF71F90E072
:1018C000982F8827A901BD018E0F9F1F0C949708A0
:1018D0008F929F92AF92BF92CF92DF92EF92FF9240
:1018E0001F93CF93DF93CDB7DEB72C970FB6F89445
:1018F000DEBF0FBECDBF2091B50214E0222339F127
:101900006B017C0180E591E00E94BA005E0127E056
:10191000A20EB11C450110E063E070E0812F0E942F
:101920002209F40181934F01882349F11F5F14308C
:1019300099F710E0F50181915F018D31D9F088317F
:10194000C9F08A518230B0F01F5F143099F7812FAF
:101950002C960FB6F894DEBF0FBECDBFDF91CF91AE
:101960001F91FF90EF90DF90CF90BF90AF909F902E
:101970008F90089560E170E0812F0E943F09A12EB1
:10198000B12C83EE93E00197F1F742E870E060E05C
:10199000812F0E9489054FEF62E070E0812F0E9445
:1019A0008905B601C114D10491F480910C01909184
:1019B0000D0101968115F0EC9F0708F45CC090932F
:1019C0000D0180930C0160910C0170910D01812F2C
:1019D0000E94740586E0EAE1F1E0DE0111960190D3
:1019E0000D928A95E1F7F70183818F778C8384814B
:1019F0008D8385818E83A7014E5F5F4F24E030E0A9
:101A00006CE070E0812F0E944E05B601812F0E948C
:101A10005F0526E030E0AE014F5F5F4F66E070E0AB
:101A2000812F0E944E0561E070E0812F0E943F09E6
:101A300027E02A9DC0012B9D900D11249C012B565F
:101A40003D4F7901F9011182108222E030E0AE01B0
:101A5000455F5F4F68E270E0812F0E94570C8B85D5
:101A60009C85982789279827F7019383828316827C
:101A7000158214826CCF80E090ECA1CFCF92DF92E0
:101A8000EF92FF920F931F93CF93DF9300D000D07C
:101A900000D0CDB7DEB78C016B017A01FC01808DDF
:101AA000843010F40E945B0986EA91E09A8389836E
:101AB000F60182819381A481B5818B839C83AD8360
:101AC000BE83B701CE0101960E94680CF801808F99
:101AD0008430A0F4F586E486128E118E81E026967D
:101AE0000FB6F894DEBF0FBECDBFDF91CF911F912F
:101AF0000F91FF90EF90DF90CF90089580E0EFCFAF
:101B0000AF92BF92CF92DF92EF92FF920F931F930B
:101B1000CF93DF9300D000D000D0CDB7DEB7082F31
:101B20006B0180E591E00E94BA009E012F5F3F4F5C
:101B30007901590110E063E070E0812F0E942209D1
:101B4000F50181935F01882341F11F5F143099F7FC
:101B500010E0F70181917F018D31D1F08831C1F022
:101B60008A518230A8F01F5F143099F7812F269692
:101B70000FB6F894DEBF0FBECDBFDF91CF911F919E
:101B80000F91FF90EF90DF90CF90BF90AF900895AE
:101B900060E170E0812F0E943F09E12EF12C83EE7D
:101BA00093E00197F1F7402F70E060E0812F0E94F1
:101BB00089054FEF62E070E0812F0E948905B60130
:101BC000CD2889F480910C0190910D010196811529
:101BD000F0EC9F0798F190930D0180930C016091B8
:101BE0000C0170910D01812F0E94740561E070E07D
:101BF000812F0E943F0927E02E9DC0012F9D900D4F
:101C000011249C012B563D4F7901F901118210825C
:101C100022E030E0AE014B5F5F4F68E270E0812F61
:101C20000E94570C8D819E81982789279827F7015C
:101C30009383828316821582148298CF80E090EC81
:101C4000CACFCF92DF92EF92FF921F93CF93DF9391
:101C5000EC017B016A018C85843048F40E94740990
:101C6000882319F08C850E944F0984E08C87F70146
:101C700082819381A481B5810097A105B10551F4BA
:101C800090E080E0DF91CF911F91FF90EF90DF9087
:101C9000CF9008958F3F9F4FAF4FBF4F89F38091F3
:101CA000B502811103C084E08C87EACF70E060E068
:101CB00081E20E94800D182F8C87843008F780E520
:101CC00091E00E94BA00A7014E5F5F4F24E030E030
:101CD0006CE070E0812F0E944E05B601812F0E94BA
:101CE0005F0564E070E0812F0E943F090E94F902C5
:101CF0006B017C018C850E947409873109F18C315C
:101D0000F9F0882309F4BCCF0E94F902AB01BC01B1
:101D10004C195D096E097F098D859E85B0E0A0E0B4
:101D200084179507A607B70738F061E070E080E0F8
:101D300090E00E94C602DECF8C850E945B09B3CF83
:101D400081E090E09FCF0F931F93CF93DF93EC013F
:101D50008B01888D843010F40E945B098091B5025C
:101D6000811107C094E0988FDF91CF911F910F915F
:101D70000895B80182E00E94800D888F843030F48D
:101D80001D870C871A8E198E81E0EECF80E0ECCF94
:101D90007F928F929F92AF92BF92CF92DF92EF92FB
:101DA000FF920F931F93CF93DF9300D0CDB7DEB791
:101DB000782E8B014A01590122E030E0AE014F5FDD
:101DC0005F4F64E270E00E94570CE980FA80FE24C5
:101DD000EF24FE24E00EF11E970137704091B5020A
:101DE000072D10E0433309F042C0085F1F4F102F4A
:101DF0000027110F110F110FC901800F911F4733D9
:101E0000C9F1A9014A0D5B1D4130584098F160E0CD
:101E100078E06B01C21AD30AA601B4010E947D04C6
:101E2000A5014C195D09B4016C0D7D1DC8010E940E
:101E30007D04EA0CFB1CF982EA8222E030E0AE016C
:101E40004F5F5F4F64E270E0872D0E944E050F9058
:101E50000F90DF91CF911F910F91FF90EF90DF9046
:101E6000CF90BF90AF909F908F907F900895005F2C
:101E70001F4FBDCFA501B401DACFEF92FF921F93A0
:101E8000CF93DF9300D0CDB7DEB7182F22E030E03C
:101E9000AE014F5F5F4F60E270E00E94570CE98037
:101EA000FA80FE24EF24FE2422E030E0AE014F5FF2
:101EB0005F4F60E270E0812F0E94570C89819A8108
:101EC000982789279827E816F90689F487E0189F4C
:101ED000F0011124EB56FD4FF582E482C7010F900B
:101EE0000F90DF91CF911F91FF90EF9008957C01AB
:101EF000DBCF1F93CF93DF93182F80E591E00E94F3
:101F0000BA00812F0E943D0FEC0163E070E0812F49
:101F10000E942209873121F08C3111F0D0E0C0E01D
:101F2000CE01DF91CF911F910895CF93DF93EC0104
:101F30008C85843060F40E947409873111F08C31F3
:101F400031F48C850E94790F8115984088F3DF91D8
:101F5000CF910895FC018485843010F40C94790F9E
:101F600090E080E008959F92AF92BF92CF92DF926F
:101F7000EF92FF920F931F93CF93DF938C015B013E
:101F8000942EE52EFC01C688D788F08C80E591E080
:101F90000E94BA008F2D0E943D0FC92DDE2D8C1797
:101FA0009D0708F4EC019E01A501B6018F2D0E944A
:101FB000C80EF801868997898C0F9D1F978B868B99
:101FC000CE01DF91CF911F910F91FF90EF90DF90A5
:101FD000CF90BF90AF909F9008958F929F92AF92B5
:101FE000BF92CF92DF92EF92FF920F931F93CF9306
:101FF0006C015B018A01FC01C485C430F0F57A01F3
:102000004130584018F0E12C88E0F82E80E591E04E
:102010000E94BA008C2F0E943D0F4C0163E070E0DB
:102020008C2F0E942209873111F08C3149F58E14D2
:102030009F0460F380E591E00E94BA009701A5013A
:1020400070E060E08C2F0E94C80E60E270E08C2F80
:102050000E943F0962E070E08C2F0E94220984FDFB
:1020600017C063E070E08C2F0E94220981110BC021
:1020700081E090E0F6019383828310E000E010C0DD
:10208000F12CE12CD7CF80E591E00E94BA00E2CF9D
:1020900040E162E070E08C2F0E948905EF2841F357
:1020A000C801CF911F910F91FF90EF90DF90CF90DB
:1020B000BF90AF909F908F900895FF920F931F93C2
:1020C000CF93DF9300D0CDB7DEB7F82E22E030E01B
:1020D000AE014F5F5F4F66E270E00E94570C0981CE
:1020E0001A8110270127102722E030E0AE014F5F50
:1020F0005F4F66E270E08F2D0E94570C89819A81B4
:102100009827892798270817190749F4C8010F90BD
:102110000F90DF91CF911F910F91FF9008958C0147
:10212000E3CF1F93CF93DF93182F87E0189FE00131
:102130001124CB56DD4F88819981009761F480E5A9
:1021400091E00E94BA00812F0E945D102E81821BB7
:10215000910999838883DF91CF911F910895FC01A4
:102160008485843010F40C94911090E080E0089500
:102170004F925F927F928F929F92AF92BF92CF9237
:10218000DF92EF92FF920F931F93CF93DF9300D0D4
:10219000CDB7DEB7782E6B014A01A82EB12C27E00F
:1021A000829FC0011124FC01EB56FD4F7F0100818D
:1021B000118180E591E00E94BA000815190554F4D8
:1021C000872D0E945D10F70126818C01021B1109E9
:1021D000118300830115110529F563E070E0872D57
:1021E0000E942209843159F0882349F001E010E06F
:1021F0008C3111F410E000E0119501951109C8012E
:102200000F900F90DF91CF911F910F91FF90EF9062
:10221000DF90CF90BF90AF909F908F907F905F9016
:102220004F900895801691060CF4840187E08A9DF2
:10223000F0018B9DF00D1124EB56FD4FE280F380F1
:10224000C114D10451F12701F7E05F22872D0E94CC
:102250004005840D951D2091B502273309F453C024
:102260009801240D351D2130384008F44CC020E081
:1022700038E0490184189508A401B6010E94970826
:102280002601480C591C6801C818D908872D0E94DE
:102290004005A601B2010E949708E00EF11E87E0FA
:1022A0008A9DF0018B9DF00D1124EB56FD4FF382BA
:1022B000E28220813181201B310B31832083868192
:1022C000800F912F911D8A3F910510F4232BF1F47B
:1022D00087E08A9DF0018B9DF00D1124EB56FD4F98
:1022E0001682F982EA8222E030E0AE014F5F5F4F52
:1022F00068E270E0872D0E944E0560E470E0872D53
:102300000E943F097CCFA801B601C5CF868377CF55
:10231000CF93DF93FC01218D328D2115310529F4F6
:102320008FEF9FEFDF91CF910895EC01808D4217E1
:10233000530708F0A9010E94B8101816190684F76F
:10234000298D3A8D281B390B3A8F298FEBCF0F93AC
:102350001F93CF93DF931F92CDB7DEB7FC01218D82
:10236000328D232B41F48FEF9FEF0F90DF91CF91B0
:102370001F910F9108958C0141E050E0BE016F5F05
:102380007F4FFC01808D0E94B810181619065CF76B
:10239000F801818D928D0197928F818F898190E0D4
:1023A000E4CFCF93DF931F92CDB7DEB741E050E08B
:1023B000BE016F5F7F4FFC0184850E94B810181624
:1023C000190634F4898190E00F90DF91CF91089540
:1023D0008FEF9FEFF9CFFC018485843010F40C94CB
:1023E000B81090E080E008950F931F93CF93DF9390
:1023F00000D0CDB7DEB7FC0124852430E0F48C0199
:1024000080E591E00E94BA0022E030E0AE014F5F2B
:102410005F4F60E170E0F80184850E94570C89816C
:102420009A819827892798270F900F90DF91CF9155
:102430001F910F91089590E080E0F6CF0F931F93C6
:10244000CF93DF9300D0CDB7DEB7FC0124852430D5
:10245000E0F48C0180E591E00E94BA0022E030E0D7
:10246000AE014F5F5F4F64E070E0F80184850E9429
:10247000570C89819A819827892798270F900F9068
:10248000DF91CF911F910F91089590E080E0F6CFFA
:102490000F931F93CF93DF93CDB7DEB728970FB677
:1024A000F894DEBF0FBECDBF8C01D80159964D9177
:1024B0005C915A974115510551F0ED91FC91048CB6
:1024C000F58DE02D70E060E0C8010995EECFF801D0
:1024D000808D0E949110892BB1F148E050E0BE013F
:1024E0006F5F7F4FD80158968C910E94B8101816D4
:1024F0001906F4F4D801509684E0FE01319601905B
:102500000D928A95E1F78D8190E0982F88272E8192
:10251000820F911DF801958B848B8F81282F30E0DD
:10252000322F22278885820F932F911D928F818FC2
:1025300028960FB6F894DEBF0FBECDBFDF91CF91C6
:102540001F910F91089590E080E0F2CF4F925F923B
:102550006F927F928F929F92AF92BF92CF92DF92B3
:10256000EF92FF920F931F93CF93DF93CDB7DEB718
:1025700063970FB6F894DEBF0FBECDBF7C016B0131
:102580003A01FB0120E090E080E06AE031913323E2
:1025900009F461C040ED430F4A3008F04DC0689F18
:1025A000A001699F500D1124CA01C097830F911D8E
:1025B00037FD9A958F3F910549F340F3F70142812A
:1025C0005381648175818091810390918203A091F0
:1025D0008303B0918403481759076A077B0709F4FE
:1025E0000DC28701085F1F4F0E94F9026F707727A5
:1025F0007C5FC8010E94A30E813009F004C286EA04
:1026000091E09A838983F70182819381A481B581C6
:102610008B839C83AD83BE8345E350E0BE016F5F37
:102620007F4FC8010E94DE05892BA9F5D12CC12C52
:10263000C8010E94670917C03E3209F0BFCF23309E
:1026400009F4BCCFD301A20FB11D12968C932F5F5A
:1026500090E080E09BCF233009F0B0CFF301858379
:10266000CC24C394D12CC60163960FB6F894DEBF78
:102670000FBECDBFDF91CF911F910F91FF90EF90D3
:10268000DF90CF90BF90AF909F908F907F906F9092
:102690005F904F9008950E94F902F7017783668357
:1026A00042E050E0B7016A5F7F4FC8010E94B30F5C
:1026B00081E090E09A83898342E050E0BE016F5F41
:1026C0007F4FC8010E94B30F80E091E09A83898315
:1026D00042E050E0BE016F5F7F4FC8010E94B30F20
:1026E0001A82198242E050E0BE016F5F7F4FC8013D
:1026F0000E94B30F42E050E0BE016F5F7F4FC80100
:102700000E94B30F42E050E0BE016F5F7F4FC801EF
:102710000E94B30F5601F6018081882301F1650103
:10272000F60181912F01882311F08E32B1F4460118
:102730008A189B081814190474F48D8641E050E03F
:10274000BE01635F7F4FC8010E94B30FA401B501B2
:10275000C8010E94B30F5201DECF6201E1CF1D8696
:1027600041E050E0BE01635F7F4FC8010E94B30F9C
:10277000C12CDD24D394DA82C98242E050E0BE014C
:102780006F5F7F4FC8010E94B30FDA82C98242E0B7
:1027900050E0BE016F5F7F4FC8010E94B30FC801B8
:1027A0000E94DB09892B09F441CFF3E0AF2EB12C55
:1027B000230122E0420E511CD4C0F7014281538113
:1027C00064817581808D918DA28DB38D48175907D5
:1027D0006A077B0709F008C1848D958DC59709F0BC
:1027E00003C181A192A15DEFC52EDD24DA940C977F
:1027F0000CF4ADC04CE050E0BE016F5F7F4FC801EC
:102800000E9488118B819C819827892798279A8B11
:10281000898BF7014681578129813A8142175307F5
:1028200009F0E7C097FFE5C08F7092703BEFC32EB1
:10283000DD24DA94892B09F08AC06F8078847624AD
:10284000672476242AEFC22EDD24DA946114710401
:1028500009F47DC0D12CC12C8D819E8198278927B8
:102860009827C816D906F8F441E050E0BE01635F2E
:102870007F4FC8010E9488114D85442331F050E0FC
:1028800070E060E0C8010E9488118D858111ECCF55
:1028900044E050E070E060E0C8010E948811FFEF62
:1028A000CF1ADF0AD9CF912C812C41E050E0BE0134
:1028B0006D5E7F4FC8010E9488114B89842F807CF8
:1028C00009F06CC0442331F050E070E060E0C801D2
:1028D0000E9488118B898111E8CF42E050E0BE014F
:1028E000615F7F4FC8010E94881142E050E0BE0145
:1028F000635F7F4FC8010E94881144E050E070E0A0
:1029000060E0C8010E94881142E050E0BE016F5EA5
:102910007F4FC8010E9488118F85988949895A89FB
:102920008115914009F043C0CD84DE84DC24CD24A0
:10293000DC2481E0C816D104D1F54115544009F0DA
:102940004AC044E050E0B201C8010E94881121E071
:10295000A21AB10809F46CCEFFEFCF16DF0609F01A
:1029600067CE0E94F9023B014C01C8010E94481247
:10297000181619060CF421CF0E94F902661977097E
:1029800088099909693873418105910548F562E321
:1029900070E080E090E00E94C602E7CF41E050E0A6
:1029A00070E060E0C8010E9488111B8A93CF542711
:1029B0004527542770E060E0C8010E948811FFEFAE
:1029C0008F1A9F0A6814790409F06FCF96EFC92E09
:1029D000DD24DA94BCCFE7EFCE2EDD24DA94B7CF36
:1029E000CC24CA94DC2CB3CF6EEFC62EDD24DA944F
:1029F000AECF4CEFC42EDD24DA94A9CF8EEFC82ED3
:102A0000DD24DA9430CED12CC12C2DCECF92DF92A2
:102A1000EF92FF920F931F93CF93DF93CDB7DEB763
:102A2000AF970FB6F894DEBF0FBECDBF7C016A0131
:102A300006EA11E01A8309831C861B8688EE93E060
:102A4000A0E0B0E08D879E87AF87B88B8CE391E0E4
:102A50009A878987188F0F8B198E1A8E1B8E1C8E62
:102A600084E089A31BA70AA71CA61DA61EA61FA655
:102A70008091750390917603A0917703B0917803CC
:102A80008EA39FA3A8A7B9A78B839C83AD83BE8386
:102A900018861F82AE01465D5F4FCE0101960E94EF
:102AA000A61281309105B1F4D701ED91FC91048813
:102AB000F589E02D1DA30CA38CA59DA5AEA5BFA5F2
:102AC0008EA39FA3A8A7B9A7A601BE016C5D7F4FE7
:102AD000C7010995AF960FB6F894DEBF0FBECDBF04
:102AE000DF91CF911F910F91FF90EF90DF90CF90EA
:102AF0000895CF92DF92EF92FF920F931F93CF939F
:102B0000DF93CDB7DEB7AF970FB6F894DEBF0FBE39
:102B1000CDBF8C016B017A0186EA91E09A838983AB
:102B20001B821C821D821E821C861B8648EE53E07F
:102B300060E070E04D875E876F87788B2CE331E033
:102B40003A872987988F8F8B198E1A8E1B8E1C8E31
:102B500024E029A39BA78AA71CA61DA61EA61FA624
:102B6000D8011C968C91843060F40E9474098823EB
:102B700021F0F80184850E944F0984E0D8011C9659
:102B80008C938091750390917603A0917703B09117
:102B900078038EA39FA3A8A7B9A78B839C83AD833B
:102BA000BE8318861F82AE01465D5F4FB601CE011F
:102BB00001960E94A6120097C1F0D801ED91FC91F8
:102BC0000684F785E02D86EA91E09DA38CA38CA571
:102BD0009DA5AEA5BFA58EA39FA3A8A7B9A7A70132
:102BE000BE016C5D7F4FC8010995AF960FB6F89492
:102BF000DEBF0FBECDBFDF91CF911F910F91FF9030
:102C0000EF90DF90CF900895EF92FF920F931F9374
:102C1000CF93DF9300D000D0CDB7DEB78C017B011E
:102C2000FB0184858430A8F086EA91E0F801918365
:102C300080831282138214821582C8010F900F9034
:102C40000F900F90DF91CF911F910F91FF90EF9018
:102C5000089580E591E00E94BA0024E030E0AE01E2
:102C60004F5F5F4F6CE070E0F70184850E94570C66
:102C700086EA91E0F8019183808389819A81AB8112
:102C8000BC8182839383A483B583D7CF2F923F9255
:102C90004F925F926F927F928F929F92AF92BF926C
:102CA000CF92DF92EF92FF920F931F93CF93DF9318
:102CB000CDB7DEB7C451D1400FB6F894DEBF0FBE1A
:102CC000CDBF0E94F90260938702709388028093BF
:102CD000890290938A0200918302109184022091CC
:102CE0008502309186026B017C01C01AD10AE20A8A
:102CF000F30AC0927F02D0928002E0928102F092A9
:102D0000820286E0E0E2F1E0DE01A551BF4F0190D2
:102D10000D928A95E1F786E0E6E2F1E0DE01AF5040
:102D2000BF4F01900D928A95E1F789EB93E00E94E5
:102D3000050390937E0280937D0286EB93E00E94D0
:102D4000050390937C0280937B0280E10E948F02B6
:102D50008C0181E10E948F025C018FE00E948F0252
:102D6000BC01990F880B990B0E94422323E333E3A4
:102D700043E150E40E94A1230E9469252B018EE0CB
:102D80000E948F02BC01990F880B990B0E9442236D
:102D900023E333E343E150E40E94A1230E94692529
:102DA0009801240D351D37FF02C02F5F3F4FA90149
:102DB00055954795C95FDE4F59834883C750D14029
:102DC0009501260F371F37FF02C02F5F3F4FD901F4
:102DD000B595A795C75FDE4FB983A883C950D14089
:102DE0000A0D1B1D17FF02C00F5F1F4FF801F5955D
:102DF000E795C55FDE4FF983E883CB50D140640D82
:102E0000751D77FF02C06F5F7F4F9B01359527953A
:102E1000C35FDE4F39832883CD50D14030E3C316E2
:102E200035E7D306E104F10408F46BC38091D403C1
:102E30009091D5030E94D50640E06CEC8091D403BC
:102E40009091D5030E94A1064091CB0364E4809148
:102E5000D4039091D5030E94A1068091CF038823CB
:102E600011F1E091CE038091D003882309F4BBC116
:102E70008091CB038111B7C10E94F9026B017C01E3
:102E80008091D4039091D5030E944E06813059F071
:102E90000E94F9026C197D098E099F096E3E7240ED
:102EA0008105910568F383E090E0CD5FDE4F998363
:102EB0008883C350D140712C612CDE011A96CF5FFC
:102EC000DE4FB983A883C150D140C62CE091D40312
:102ED000F091D50313861586148612861186108606
:102EE00017821682158214821382D12CE090D403AB
:102EF000F090D503F7018585882309F49CC1D7019B
:102F00001B961C921B971D961C921D971C961C923B
:102F100060E070E08EEF92ECF301EE0FFF1FEE0F1A
:102F2000FF1FA9ECB0E0AC0FBD1FEA0FFB1F6083D1
:102F300071838283938320E030E04EEF52EC0E9455
:102F40003B23811108C0CD5FDE4F79826882C35078
:102F5000D140712C612CF301EE0FFF1F21EF30E007
:102F60002C0F3D1FE20FF31F608171816115710508
:102F700021F088EB92E00E9428076BEA71E088EB71
:102F800092E00E942807F301EE0FFF1FEE0FFF1FD4
:102F900049EC50E04C0F5D1FE40FF51FC080D1805D
:102FA000E280F380A7019601C701B6010E94A42523
:102FB0006EEA71E081111BC046015701E894B7F831
:102FC0002FEF3FEF4FE75FE7C501B4010E94A42553
:102FD000811114C22FEF3FEF4FE75FE7C501B40146
:102FE0000E943B2318160CF009C262EB71E088EBDB
:102FF00092E00E94280768EA71E088EB92E00E9464
:10300000280720E030E0A901C701B6010E949F25F2
:1030100020E030E040E05FE387FD6EC2C701B6010B
:103020000E94FD240E946925C352DF4F1982188235
:10303000CD5DD040C152DF4F19821882CF5DD040A4
:10304000CF51DF4F19821882C15ED0402AE0AE0115
:103050004F5F5F4F0E948921BE016F5F7F4FCE019E
:1030600083529F4F0E941708BE0163527F4F8CEB23
:1030700093E00E94C300CE0183529F4F0E949607A7
:103080005FEF651A750ACD5FDE4F88819981C35065
:10309000D140681679060CF418CF80918702909180
:1030A0008802A0918902B0918A0280938302909352
:1030B0008402A0938502B093860290E0292E91E0CD
:1030C000392E6E01B9ECCB0ED11C23EB822E23E0FE
:1030D000922EE8E7F2E0C15FDE4FF983E883CF503C
:1030E000D14030EBE32E33E0F32E5E01FBEEAF0E6A
:1030F000B11C22E331E0CB5FDE4F39832883C5501A
:10310000D140CD5FDE4F48815981C350D1404D54ED
:103110005C4FCD5FDE4F59834883C350D14001E0FF
:10312000CD5FDE4F88819981C350D14088169906C2
:1031300009F42EC2CB5FDE4FA881B981C550D140C2
:103140007C901296CB5FDE4FB983A883C550D140E7
:10315000F4011081872D0E94070221E0892B09F4D8
:1031600020E0121709F4D6C165E070E080E090E03D
:103170000E94C602872D0E94070221E0892B09F0D8
:10318000CCC120E0C15FDE4FA881B981CF50D140D2
:103190008C918111C4C1D4012D934D01C15FDE4FCB
:1031A000E881F981CF50D1401192C15FDE4FF983A0
:1031B000E883CF50D140D5011C91B2E0AB0EB11CD9
:1031C000F7018081882309F4AFC160E0812F0E945C
:1031D0003002B4E02B0E311CE4E0CE0ED11CFFEF28
:1031E000EF1AFF0A9DCFE9508EEE92E0E33038F4FB
:1031F000F0E0EE0FFF1FE45DFE4F808191816C01D6
:10320000990FEE08FF088091CC03882329F060E035
:103210008091CD030E943002C701B6010E94C60210
:103220008091CC03882309F43ECE61E08091CD03E8
:103230000E94300238CEC7010E94D506811105C018
:10324000F70113861586148663CE40E060EFC70150
:103250000E94A10601E0A12C912C11E0C7010E945F
:103260004E06B82EC7010E944E06F1E0BF1228C0DC
:10327000813009F046C0113408F441CEF70193863D
:10328000911002C021E02587D70113968C918823E5
:1032900009F435CEF70133968E0103521F4FBBE080
:1032A000EB0EF11CD801580181918D93EE15FF05AD
:1032B000D9F7CD14E1F1D394CD1408F017CE28CE70
:1032C000EA2DF0E0B81213C0D7011B968C911B9722
:1032D0001817A8F4AE0FBF1F13968C91802389F4A2
:1032E000B12C193018F4D7011C961C93912EEE0DB9
:1032F000FF1D8381902F9095892383830AC08113BA
:10330000EFCFF701EA0DF11D8381802B8383BB246E
:10331000B3946B2DC7010E9472061F5F000F11F45A
:10332000A39401E0B7E0BA1508F098CFA4CF67E006
:10333000C8010E943706F80197818913BCCF80919C
:10334000D4039091D5030E94D506882309F4E0CDDB
:10335000E090D403F090D50340E065E5C7010E94FA
:10336000A1066801F8E0CF0ED11CD8016D918D0146
:1033700040E0C7010E94A1060C151D05B1F740E011
:103380006EEB8091D4039091D5030E94A1068E012B
:103390000F5F1F4F780118018090D4039090D503E0
:1033A00088E0C82ED12C512C44244394C4010E949F
:1033B0004E0681115428440CB1E0CB1AD108B1F764
:1033C000F70151927F01CF5FDE4F28813981C150D3
:1033D000D1402E173F0701F78091D4039091D50378
:1033E0000E94D506813009F093CDD8018D918D01D1
:1033F000811149C3AE15BF05C1F78ACD2FEF3FEF4D
:103400004FE75FE4C701B6010E949F2518161CF420
:1034100066EB71E0ECCD2FEF3FEF4FE75FECC701BC
:10342000B6010E943B2387FDF3CF20E030E0A901E5
:10343000C701B6010E943B2387FF5BC06DE288EBAA
:1034400092E00E947101C701B60190582AE037ED61
:1034500043EA5BE30E94FD241B012C010E947025BE
:103460004B015C010E9440239B01AC01C201B101F0
:103470000E94FC241B012C012AE0B501A40188EB69
:1034800092E00E9437076EE288EB92E00E947101A1
:1034900020E030E040E251E4C201B1010E94A123EA
:1034A0001B012C010E9470254B01B12CA12C2AE09C
:1034B000B501A40188EB92E00E943707C501B40171
:1034C0000E9440239B01AC01C201B1010E94FC2477
:1034D00020E030E040E251E40E94A1230E947025E8
:1034E000AB0170E060E02AE088EB92E00E943707D1
:1034F00082CDC701B601AACFC701B6010E94FC2444
:1035000091CDA3E0B0E0CD5FDE4FB983A883C35077
:10351000D140D3CD112309F435CE111133CEF701AB
:1035200080818027808337CE61E0812F0E94300226
:10353000D1014D905D906D907C90D6012D913D9183
:103540004D915C91CF5EDE4F288339834A835B8344
:10355000C151D140C301B2010E949F2560E01816FD
:1035600084F0CF5EDE4F288139814A815B81C15171
:10357000D140C301B2010E943B2318160CF429CE9E
:1035800061E0812F0E943002812F0E94070221CE2C
:10359000C95FDE4F88819981C750D140C75FDE4F38
:1035A00028813981C950D140821B930B97FF03C0FA
:1035B000919581959109459784F100917B02109135
:1035C0007C02C95FDE4F48815981C750D140C75F37
:1035D000DE4F88819981C950D140841795070CF03E
:1035E000CCC1B8016F5F7F4F86EB93E00E946F0301
:1035F0000338110564F082E890E090937C02809398
:103600007B0262E870E086EB93E00E946F0362E366
:1036100070E080E090E00E94C602C55FDE4F8881C6
:103620009981CB50D140C35FDE4F28813981CD5085
:10363000D140821B930B97FF03C09195819591090F
:10364000459784F100917D0210917E02C55FDE4FA7
:1036500048815981CB50D140C35FDE4F8881998129
:10366000CD50D140481759070CF0ABC1B8016F5F7E
:103670007F4F89EB93E00E946F030739110564F0D7
:1036800086E990E090937E0280937D0266E970E087
:1036900089EB93E00E946F0362E370E080E090E0CA
:1036A0000E94C6026AEA71E0CE0189509F4F0E94D3
:1036B000DB078CEB93E00E94AF10181619060CF094
:1036C0003DC16AEA71E0CE018B519F4F0E94DB073A
:1036D0009E012F5F3F4F790110E000E0690188EC07
:1036E000B82E0115110529F4D601EB2D1D92EA958E
:1036F000E9F78CEB93E00E94D111D7018D937D0106
:103700000F5F1F4F0530110561F7B601CE018352DF
:103710009F4F0E94DB07CB51DF4F88819981C55EA7
:10372000D040009709F473C1C352DF4F688179819B
:10373000CD5DD0406115710509F467C1C951DF4FF6
:1037400048815981C75ED040CF51DF4F28813981F0
:10375000C15ED0404217530708F457C10E94DE27CC
:10376000CF51DF4F88819981C15ED040C751DF4F73
:1037700099838883C95ED040CF51DF4F1982188268
:10378000C15ED040CE0183529F4F0E949607BE017A
:103790006B517F4F88EB92E00E94C3006AEB71E0AF
:1037A000CE018B519F4F0E949E07882309F460C170
:1037B00081E08093780260EC71E0CE018B519F4FE5
:1037C0000E949E07882309F456C181E08093790204
:1037D00066EC71E0CE018B519F4F0E949E078823BB
:1037E00009F44CC181E080937A02C751DF4F888190
:1037F0009981C95ED040892B09F443C1CB51DF4F79
:10380000E881F981C55ED040309709F43AC18081E2
:10381000C352DF4F19821882CD5DD040C152DF4FB5
:1038200019821882CF5DD040CF51DF4F19821882A4
:10383000C15ED040C350DF4F8883CD5FD040C250BF
:10384000DF4F1882CE5FD040BE0163507F4FCE0164
:1038500083529F4F0E941708BE0163527F4F88EB2F
:1038600092E00E94C3008A81C350DF4F8883CD5FFE
:10387000D0408B81C250DF4F8883CE5FD0408C8197
:10388000C150DF4F8883CF5FD0408D81C050DF4F64
:103890008883C050D1406CEC71E0CE0183529F4FC1
:1038A0000E949E07882369F0CE0183509F4F0E949B
:1038B0008521609304017093050180930601909324
:1038C00007016EEC71E0CE0183529F4F0E949E076C
:1038D000882369F0CE0183509F4F0E948521609319
:1038E000000170930101809302019093030160ED48
:1038F00071E0CE0183529F4F0E949E07882369F09A
:10390000CE0183509F4F0E948521609308017093E0
:10391000090180930A0190930B016CEA71E0CE01DA
:103920008B519F4F0E941708CE0183529F4F0E94D8
:103930009607CE018B519F4F0E949607CE0189506A
:103940009F4F0E949607CC5EDE4F0FB6F894DEBF05
:103950000FBECDBFDF91CF911F910F91FF90EF90E0
:10396000DF90CF90BF90AF909F908F907F906F909F
:103970005F904F903F902F900895C95FDE4FA881D0
:10398000B981C750D140C75FDE4FE881F981C95086
:10399000D140B801AE17BF070CF035CE61507109A8
:1039A00086EB93E00E946F03023311050CF02FCEDB
:1039B00082E390E090937C0280937B0262E370E06C
:1039C00022CEC55FDE4FA881B981CB50D140C35F05
:1039D000DE4FE881F981CD50D140B801EA17FB07ED
:1039E0000CF056CE6150710989EB93E00E946F0391
:1039F0000E3111050CF050CE8EE190E090937E02D6
:103A000080937D026EE170E043CE0E947F26C35218
:103A1000DF4F88819981CD5DD040CB51DF4F9983B5
:103A20008883C55ED040C152DF4F88819981CF5DC8
:103A3000D040C951DF4F99838883C75ED040CF51B2
:103A4000DF4F88819981C15ED040C751DF4F998394
:103A50008883C95ED040C352DF4F19821882CD5D82
:103A6000D040C152DF4F19821882CF5DD04084CE42
:103A700010927802A0CE10927902AACE10927A0209
:103A8000B4CE80E0C5CE68E0C1010E9437069985BA
:103A900089133ECA6A8170E0762F6627770F770F09
:103AA000770F2981B8E02B9F90011124262B372B0B
:103AB000F50180818031E1F468856623C9F070E00A
:103AC0008F81AB01481B5109CA019695982F882711
:103AD000979587950E94B525CB018097B90113E092
:103AE000660F771F1A95E1F760789C01260F371F44
:103AF000213854EE35070CF40BCAB901330F880B8B
:103B0000990B0E94422320E030E040E05CE30E94F9
:103B1000A12302CA1F920F920FB60F9211242F9366
:103B20003F934F935F936F937F938F939F93AF9345
:103B3000BF93EF93FF9388EB92E00E944F01FF91B8
:103B4000EF91BF91AF919F918F917F916F915F9115
:103B50004F913F912F910F900FBE0F901F9018958E
:103B60001F920F920FB60F9211242F938F939F9352
:103B7000EF93FF93E091C802F091C9028081E09138
:103B8000CE02F091CF0282FD1BC090818091D102C4
:103B90008F5F8F732091D202821741F0E091D102A2
:103BA000F0E0E854FD4F958F8093D102FF91EF91A3
:103BB0009F918F912F910F900FBE0F901F9018958E
:103BC0008081F4CF1F920F920FB60F9211242F9382
:103BD0003F938F939F93AF93BF9380918D0290916A
:103BE0008E02A0918F02B091900230918C0223E05E
:103BF000230F2D3758F50196A11DB11D20938C027E
:103C000080938D0290938E02A0938F02B0939002C6
:103C10008091910290919202A0919302B0919402AE
:103C20000196A11DB11D8093910290939202A093E1
:103C30009302B0939402BF91AF919F918F913F9166
:103C40002F910F900FBE0F901F90189526E8230F0D
:103C50000296A11DB11DD2CF1F920F920FB60F92E7
:103C600011242F933F934F935F936F937F938F9381
:103C70009F93AF93BF93CF93DF93EF93FF93809185
:103C80008B02C091AF03D0E087FF24C01092850063
:103C90001092840080918B028F5F80938B028091C1
:103CA0008B02082E000C990B8C179D0724F4809131
:103CB0008B028C30C4F18091840090918500049631
:103CC00080349C4908F47AC08091840090918500EA
:103CD000049676C080918B02082E000C990B8C17ED
:103CE0009D07C4F6E0918B028E2FEE0F990BFC011D
:103CF000EE0FFF1FE80FF91FE557FC4F808186FF8D
:103D0000C9CFE0918B028E2FEE0F990BFC01EE0FC5
:103D1000FF1FE80FF91FE557FC4F808160E08F73AC
:103D20000E943002B7CF2091840030918500E0914D
:103D30008B028E2FEE0F990BFC01EE0FFF1FE80F89
:103D4000F91FE557FC4F81819281820F931F909359
:103D5000890080938800E0918B028E2FEE0F990BE3
:103D6000FC01EE0FFF1FE80FF91FE557FC4F8081A4
:103D700086FF11C0E0918B028E2FEE0F990BFC0194
:103D8000EE0FFF1FE80FF91FE557FC4F808161E040
:103D90008F730E943002FF91EF91DF91CF91BF911D
:103DA000AF919F918F917F916F915F914F913F91D3
:103DB0002F910F900FBE0F901F90189580E49CE9F3
:103DC00090938900809388008FEF80938B02E3CFDC
:103DD000CF92DF92EF92FF92CF931092BB0210929C
:103DE000BA0248EEC42E43E0D42EE12CF12CC0924E
:103DF000BC02D092BD02E092BE02F092BF0286E603
:103E000091E09093B9028093B80285EC90E0909392
:103E1000C5028093C40284EC90E09093C702809323
:103E2000C60280EC90E09093C9028093C80281ECB6
:103E300090E09093CB028093CA0282EC90E0909342
:103E4000CD028093CC0286EC90E09093CF028093D9
:103E5000CE021092D1021092D2021092D30210928E
:103E6000D40286EA91E09093560380935503109212
:103E70005703109258031092590310925A039093CB
:103E80005C0380935B0310925D0310925E031092BB
:103E90005F0310926003909362038093610310921A
:103EA000630310926403109265031092660390936B
:103EB0006803809367031092690310926A0310925B
:103EC0006B0310926C0390936E0380936D031092BA
:103ED0006F0310927003109271031092720390930B
:103EE0007A038093790310927B0310927C031092E3
:103EF0007D0310927E03909374038093730310925A
:103F000075031092760310927703109278039093C2
:103F1000800380937F03109281031092820310929A
:103F200083031092840390938603809385031092F9
:103F30008703109288031092890310928A0390934A
:103F4000FD038093FC031092FE031092FF03109276
:103F50000004109201049093F7038093F60340EC61
:103F60004093F80338EA3093F90329E82093FA03E1
:103F700051EB5093FB039093F1038093F003409334
:103F8000F2033093F3032093F403C1E0C093F503ED
:103F900060E083E10E945E02ECE1F1E0E491E093F5
:103FA000E203E8E0F1E0E491F0E0EE0FFF1FE551FD
:103FB000FF4F859194919093E4038093E3031092D3
:103FC000ED031092EF031092EE031092EC031092A7
:103FD000EB031092EA031092E9031092E8031092A7
:103FE000E7031092E6031092E5031092E1031092AA
:103FF000E0031092CC0382EE93E09093D50380937C
:10400000D4031092D2031092D3031092CB0389E011
:104010008093CE03C093CF03C093D003C093D1034A
:104020001092BF031092BE03C092C003D092C1038E
:10403000E092C203F092C30388E791E09093BD033E
:104040008093BC0384E08093C80388EE93E0909350
:10405000CA038093C9038091AF038C30D0F591E0FF
:10406000980F9093AF038093B90390E0FC01EE0F9B
:10407000FF1FE80FF91FE557FC4F88EB9BE0928389
:1040800081838091AF038C3040F591E0980F90933D
:10409000AF038093B60390E0FC01EE0FFF1FE80F23
:1040A000F91FE557FC4F88EB9BE0928381831092C8
:1040B000B3031092B4031092B5031092B0031092A0
:1040C000B1031092B203CF91FF90EF90DF90CF90A9
:1040D00008958FEF8093B903D4CF8FEF8093B60309
:1040E000E6CFCF93DF9300D000D000D0CDB7DEB7BE
:1040F000789484B5826084BD84B5816084BD85B5C3
:10410000826085BD85B5816085BD80916E008160CE
:1041100080936E0010928100809181008260809374
:104120008100809181008160809381008091800076
:104130008160809380008091B10084608093B100A1
:104140008091B00081608093B00080917A0084609B
:1041500080937A0080917A00826080937A008091C7
:104160007A00816080937A0080917A0080688093E1
:104170007A001092C10006EA11E01A830983809147
:10418000F8039091F903A091FA03B091FB038B839C
:104190009C83AD83BE83CE0101960E94350AE091D7
:1041A000C802F091C90282E08083E091C402F091DC
:1041B000C5021082E091C602F091C7028FEC8083A5
:1041C0001092D002E091CC02F091CD0286E0808383
:1041D000E091CA02F091CB02808180618083E091FE
:1041E000CA02F091CB02808188608083E091CA028C
:1041F000F091CB02808180688083E091CA02F091C7
:10420000CB0280818F7D808386E392E00E948307CA
:1042100060E177E280E090E00E94C6021A830983A1
:104220008091F2039091F303A091F403B091F50310
:104230008B839C83AD83BE8349E355E0BE016F5FF2
:104240007F4F8CEB93E00E94210E892B09F45AC01A
:104250008FE492E00E94830761E088E00E945E02A2
:1042600061E089E00E945E0261E087E00E945E02F8
:1042700060E082E10E945E0260E083E00E945E02F4
:1042800060E084E00E945E0261E088E00E9430020B
:1042900061E089E00E94300261E087E00E94300224
:1042A00060E082E10E94300260E083E00E94300220
:1042B00060E084E00E94300265E070E089EB93E00A
:1042C0000E94EB0366E070E086EB93E00E94EB0354
:1042D00065E570E089EB93E00E946F0365E570E0AF
:1042E00086EB93E00E946F0300E010E00E94461608
:1042F00001151105D9F30E943B018823B9F30E94EF
:104300000000F4CF85E692E0A5CF662777270C94CE
:10431000BA21BB272A3051F4992342F4BDE290958B
:104320008095709561957F4F8F4F9F4F0C94992189
:10433000BB27FA01A62F6217710581059105330B82
:1043400030FB66F0AA27660F771F881F991FAA1FE8
:10435000A21710F0A21B63953850A9F7A05DAA33ED
:1043600008F0A95DA19336F7B111B1931082CA018B
:104370000C942B23B0E0A0E0E0ECF1E20C949A2442
:104380005C017B016115710519F0DB018D939C9334
:1043900085010F5F1F4FF501D0818D2F90E00E94A6
:1043A0000A236C01892BB9F5DD32B9F50F5F1F4F78
:1043B000D5011196DC91C1E05801F1E0AF1AB108C6
:1043C00043E050E060E770E0C5010E941323892BB1
:1043D00069F5680182E0C80ED11C45E050E06BE64B
:1043E00070E0C6010E941323892B21F4680197E035
:1043F000C90ED11CE114F10419F0D701CD92DC9261
:1044000060E070E080E89FEFC111FFC060E070E005
:1044100080E89FE7FAC05801BBCFDB3229F4850161
:104420000E5F1F4FF501D181C0E0C6CF43E050E0E1
:1044300068E670E0C5010E941323892BE9F0F801BA
:1044400010E000E020E030E0A9015F01B0ED8B2E2C
:104450008D0E89E08815C8F19C2E689491F88C2FF8
:104460008870C2FF16C0811102C00F5F1F4F3196C6
:10447000D501DC91C92DE9CFE114F10429F00E5FDB
:104480001F4FF7011183008360E070E080EC9FE72D
:10449000BCC0882311F001501109A5E0B0E00E94D2
:1044A00081249B01AC01220F331F441F551F280D8F
:1044B000311D411D511D283999E93907490799E1F5
:1044C0005907A8F2C6609C2ED2CFAEEF8A1206C062
:1044D000C3FD3CC09C2E689493F8C9CFDF7DD534D2
:1044E000A9F580818D3239F4C061DF011296818196
:1044F00062E070E006C0DF018B32C1F3119661E02B
:1045000070E080535D01A61AB70A8A30F8F4E0E83B
:10451000CE16ECE0DE065CF4B601660F771F660F80
:10452000771FC60ED71ECC0CDD1CC80ED11C5D013A
:10453000FFEFAF1ABF0A8C9180538A30A8F1C4FFF5
:1045400003C0D194C194D1080C0D1D1DC1FF09C039
:10455000E114F10431F081E0A81AB108D701AD925D
:10456000BC92CA01B9010E944023C370C33009F450
:1045700090584B015C0120E030E0A9010E943B23F0
:10458000882309F440C0CFE9D0E017FF05C011959A
:1045900001951109C7E8D0E06E01B8E1CB1AD10846
:1045A00080E2E82EF12C0FC0D501B1CFFE0125919C
:1045B0003591459154910E191F09C501B4010E940E
:1045C000A1234B015C01D501C4010E151F0574F731
:1045D0002497F594E794CC16DD06A9F78A2F880F67
:1045E0008B2F881F8F3F49F020E030E0A901C501E3
:1045F000B4010E943B23811106C082E290E09093B7
:10460000030480930204C501B401CDB7DEB7ECE02A
:104610000C94B62491110C940E24803219F0895018
:104620008550C8F70895FB01DC014150504088F0E7
:104630008D9181341CF08B350CF4805E6591613472
:104640001CF06B350CF4605E861B611171F3990BE5
:104650000895881BFCCFDC01FC01672F7191772343
:10466000E1F7329704C07C916D9370836291AE172D
:10467000BF07C8F308950E947D2308F481E00895E0
:10468000E89409C097FB3EF49095809570956195EC
:104690007F4F8F4F9F4F9923A9F0F92F96E9BB27A2
:1046A0009395F695879577956795B795F111F8CF1E
:1046B000FAF4BB0F11F460FF1BC06F5F7F4F8F4F89
:1046C0009F4F16C0882311F096E911C0772321F07F
:1046D0009EE8872F762F05C0662371F096E8862F17
:1046E00070E060E02AF09A95660F771F881FDAF76E
:1046F000880F9695879597F90895990F0008550F9B
:10470000AA0BE0E8FEEF16161706E807F907C0F057
:1047100012161306E407F50798F0621B730B840B5F
:10472000950B39F40A2661F0232B242B252B21F439
:1047300008950A2609F4A140A6958FEF811D811DD9
:1047400008950E94B4230C9428240E941A2438F05F
:104750000E94212420F0952311F00C9411240C9434
:10476000172411240C945C240E94392470F3959F23
:10477000C1F3950F50E0551F629FF001729FBB2758
:10478000F00DB11D639FAA27F00DB11DAA1F649FF4
:104790006627B00DA11D661F829F2227B00DA11DA7
:1047A000621F739FB00DA11D621F839FA00D611D2D
:1047B000221F749F3327A00D611D231F849F600D4E
:1047C000211D822F762F6A2F11249F5750409AF077
:1047D000F1F088234AF0EE0FFF1FBB1F661F771F03
:1047E000881F91505040A9F79E3F510580F00C94CE
:1047F00011240C945C245F3FE4F3983ED4F3869537
:1048000077956795B795F795E7959F5FC1F7FE2B6D
:10481000880F911D9695879597F908959927882770
:10482000089597F99F6780E870E060E008959FEF32
:1048300080EC089500240A94161617061806090637
:10484000089500240A941216130614060506089506
:10485000092E0394000C11F4882352F0BB0F40F48E
:10486000BF2B11F460FF04C06F5F7F4F8F4F9F4FCE
:10487000089557FD9058440F551F59F05F3F71F050
:104880004795880F97FB991F61F09F3F79F08795B7
:104890000895121613061406551FF2CF4695F1DF40
:1048A00008C0161617061806991FF1CF86957105D0
:1048B000610508940895E894BB2766277727CB0104
:1048C00097F90895052E97FB1EF400940E94792411
:1048D00057FD07D00E94CB2407FC03D04EF40C9464
:1048E000792450954095309521953F4F4F4F5F4F1C
:1048F000089590958095709561957F4F8F4F9F4F4C
:1049000008950E94ED24A59F900DB49F900DA49F43
:10491000800D911D11240895B7FF0C9481240E94ED
:104920008124821B930B08952F923F924F925F92A6
:104930006F927F928F929F92AF92BF92CF92DF92AF
:10494000EF92FF920F931F93CF93DF93CDB7DEB714
:10495000CA1BDB0B0FB6F894DEBF0FBECDBF0994A8
:104960002A88398848885F846E847D848C849B84FF
:10497000AA84B984C884DF80EE80FD800C811B810D
:10498000AA81B981CE0FD11D0FB6F894DEBF0FBE3C
:10499000CDBFED010895A1E21A2EAA1BBB1BFD019C
:1049A0000DC0AA1FBB1FEE1FFF1FA217B307E4070E
:1049B000F50720F0A21BB30BE40BF50B661F771F66
:1049C000881F991F1A9469F7609570958095909546
:1049D0009B01AC01BD01CF010895A29FB001B39F1F
:1049E000C001A39F700D811D1124911DB29F700DF8
:1049F000811D1124911D08955058BB27AA270E949C
:104A000014250C9428240E941A2438F00E94212492
:104A100020F039F49F3F19F426F40C9417240EF477
:104A2000E095E7FB0C941124E92F0E94392458F3F8
:104A3000BA17620773078407950720F079F4A6F583
:104A40000C945B240EF4E0950B2EBA2FA02D0B01D5
:104A5000B90190010C01CA01A0011124FF27591BC3
:104A600099F0593F50F4503E68F11A16F040A22FC9
:104A7000232F342F4427585FF3CF4695379527953A
:104A8000A795F0405395C9F77EF41F16BA0B620B39
:104A9000730B840BBAF09150A1F0FF0FBB1F661F80
:104AA000771F881FC2F70EC0BA0F621F731F841FC3
:104AB00048F4879577956795B795F7959E3F08F0E9
:104AC000B0CF9395880F08F09927EE0F97958795AB
:104AD00008950E9470256894B1110C945C24089587
:104AE0000E94412488F09F5798F0B92F9927B75119
:104AF000B0F0E1F0660F771F881F991F1AF0BA9582
:104B0000C9F714C0B13091F00E945B24B1E0089560
:104B10000C945B24672F782F8827B85F39F0B93F52
:104B2000CCF3869577956795B395D9F73EF4909534
:104B30008095709561957F4F8F4F9F4F08950E948C
:104B40007D2308F48FEF08950E947D23880B990B35
:104B50000895991B79E004C0991F961708F0961BD9
:104B6000881F7A95C9F78095089597FB072E16F44C
:104B7000009407D077FD09D00E94C92507FC05D015
:104B80003EF4909581959F4F0895709561957F4F64
:104B90000895AA1BBB1B51E107C0AA1FBB1FA61784
:104BA000B70710F0A61BB70B881F991F5A95A9F7D6
:104BB00080959095BC01CD010895EE0FFF1F0590E3
:104BC000F491E02D09940F931F93CF93DF938230DC
:104BD000910510F482E090E0E0910604F091070462
:104BE00030E020E0B0E0A0E0309799F421153105E5
:104BF00009F44AC0281B390B24303105D8F58A81C5
:104C00009B816115710589F1FB0193838283FE010C
:104C100011C0408151810281138148175907E0F08A
:104C20004817590799F4109761F012960C93129750
:104C300013961C933296CF01DF91CF911F910F9164
:104C400008950093060410930704F4CF211531054D
:104C500051F04217530738F0A901DB019A01BD0159
:104C6000DF01F801C1CFEF01F9CF909307048093E2
:104C70000604CDCFFE01E20FF31F819391932250E2
:104C8000310939832883D7CF20910404309105045A
:104C9000232B41F420911601309117013093050424
:104CA0002093040420911401309115012115310540
:104CB00041F42DB73EB74091180150911901241BC2
:104CC000350BE0910404F0910504E217F307A0F41A
:104CD0002E1B3F0B2817390778F0AC014E5F5F4F52
:104CE0002417350748F04E0F5F1F5093050440937B
:104CF0000404819391939FCFF0E0E0E09CCFCF93A9
:104D0000DF930097E9F0FC01329713821282A091A1
:104D10000604B0910704ED0130E020E01097A1F403
:104D200020813181820F931F20910404309105046A
:104D30002817390709F061C0F0930504E0930404D3
:104D4000DF91CF910895EA01CE17DF07E8F54A8198
:104D50005B819E0141155105B1F7E901FB83EA83AF
:104D600049915991C40FD51FEC17FD0761F480815B
:104D700091810296840F951FE9019983888382812E
:104D800093819B838A83F0E0E0E012968D919C9161
:104D900013970097B9F52D913C911197CD0102968B
:104DA000820F931F209104043091050428173907BE
:104DB00039F6309751F51092070410920604B0931B
:104DC0000504A0930404BCCFD383C28340815181E6
:104DD000840F951FC817D90761F44E5F5F4F888114
:104DE0009981480F591F518340838A819B81938306
:104DF00082832115310509F0B0CFF0930704E093C9
:104E000006049ECFFD01DC01C0CF13821282D7CFF2
:104E1000B0E0A0E0EEE0F7E20C9496248C0100975D
:104E200051F4CB010E94E3258C01C801CDB7DEB758
:104E3000E0E10C94B224FC01E60FF71F9C01225024
:104E40003109E217F30708F49DC0D901CD91DC9137
:104E50001197C617D70798F0C530D10530F3CE01AA
:104E600004978617970708F3C61BD70B2297C193A1
:104E7000D1936D937C93CF010E947F26D6CF5B01A7
:104E8000AC1ABD0A4C018C0E9D1EA0910604B09177
:104E90000704512C412CF12CE12C109731F5809115
:104EA0000404909105048815990509F05CC0461624
:104EB000570608F058C08091140190911501009791
:104EC00041F48DB79EB74091180150911901841B90
:104ED000950BE817F90708F055C0F0930504E09327
:104EE0000404F90171836083A0CF8D919C91119787
:104EF00012966C90129713967C901397A815B9058B
:104F000059F56C0142E0C40ED11CCA14DB0420F137
:104F1000AC014A195B09DA011296159780F062829A
:104F2000738251834083D9016D937C93E114F10422
:104F300071F0D7011396FC93EE93129776CF2296D9
:104F40008C0F9D1FF90191838083F301EFCFF093C4
:104F50000704E093060469CF4816590608F42C01AB
:104F60007D01D3019ACFCB010E94E3257C010097FC
:104F700049F0AE01B8010E94C527C8010E947F26F2
:104F8000870153CF10E000E050CFFB01DC0102C0ED
:104F900001900D9241505040D8F70895DC0101C0B6
:104FA0006D9341505040E0F70895FB01DC018D9175
:104FB000019080190110D9F3990B0895FB01DC01D0
:104FC00001900D920020E1F70895F894FFCF0000C2
:104FD000A0410000C8410000A04100C090A2DA003A
:104FE0006CFE00000804800001005E000000080064
:104FF00009000700D201F40115025E00BC00770130
:1050000012000300040000000000A605B30F3406E0
:10501000C100BD00A7112E0CA30E3E0D6709DE05D1
:105020000615DB09481288112D061D0619061506FE
:10503000000000007101D100FE00BE012F010D0132
:10504000210100000000C705ED0FAA0F950FAF105A
:10505000D1113D0C210E7915EB11A2098009200711
:105060001D071B07BC0511071E120416F4110D07BE
:10507000000000004D080D0A002020006E616E0047
:10508000696E66006F7666004F4E303031004F4ECD
:10509000303032004F4E303033004B00410045007D
:1050A00043757272656E742074656D70657261749B
:1050B00075726520696E2042617468726F6F6D3A17
:1050C000200043757272656E742074656D70657230
:1050D000617475726520696E204B69746368656ED2
:1050E0003A200043757272656E742074656D706548
:1050F00072617475726520696E20426564726F6FAB
:105100006D3A2000436F6E6E656374696E672C2084
:10511000706C6561736520776169742E00436F6EF2
:105120006E656374696F6E20737563636573736610
:10513000756C00436F6E6E656374696F6E20666197
:06514000696C65640000CB
:107E0000112484B714BE81FFF0D085E080938100F7
:107E100082E08093C00088E18093C10086E0809377
:107E2000C20080E18093C4008EE0C9D0259A86E02C
:107E300020E33CEF91E0309385002093840096BBD3
:107E4000B09BFECF1D9AA8958150A9F7CC24DD24C4
:107E500088248394B5E0AB2EA1E19A2EF3E0BF2EE7
:107E6000A2D0813461F49FD0082FAFD0023811F036
:107E7000013811F484E001C083E08DD089C08234E0
:107E800011F484E103C0853419F485E0A6D080C0E4
:107E9000853579F488D0E82EFF2485D0082F10E0AE
:107EA000102F00270E291F29000F111F8ED06801E7
:107EB0006FC0863521F484E090D080E0DECF843638
:107EC00009F040C070D06FD0082F6DD080E0C81688
:107ED00080E7D80618F4F601B7BEE895C0E0D1E017
:107EE00062D089930C17E1F7F0E0CF16F0E7DF06D8
:107EF00018F0F601B7BEE89568D007B600FCFDCFD4
:107F0000A601A0E0B1E02C9130E011968C91119780
:107F100090E0982F8827822B932B1296FA010C0160
:107F200087BEE89511244E5F5F4FF1E0A038BF0790
:107F300051F7F601A7BEE89507B600FCFDCF97BE46
:107F4000E89526C08437B1F42ED02DD0F82E2BD052
:107F50003CD0F601EF2C8F010F5F1F4F84911BD097
:107F6000EA94F801C1F70894C11CD11CFA94CF0C13
:107F7000D11C0EC0853739F428D08EE10CD085E9AC
:107F80000AD08FE07ACF813511F488E018D01DD067
:107F900080E101D065CF982F8091C00085FFFCCF94
:107FA0009093C60008958091C00087FFFCCF809118
:107FB000C00084FD01C0A8958091C6000895E0E648
:107FC000F0E098E1908380830895EDDF803219F02E
:107FD00088E0F5DFFFCF84E1DECF1F93182FE3DFCA
:107FE0001150E9F7F2DF1F91089580E0E8DFEE27F6
:047FF000FF270994CA
:027FFE00040479
:00000001FF
