:100000000C9472000C949A000C949A000C949A0030
:100010000C949A000C949A000C949A000C949A00F8
:100020000C949A000C949A000C949A000C949A00E8
:100030000C949A000C949A000C949A000C949A00D8
:100040000C947B1A0C949A000C94491A0C94231A61
:100050000C949A000C949A000C949A000C949A00B8
:100060000C949A000C949A00005EBCE2613FDD8320
:10007000C29C7E20A3FD1F41009D23BE46DB65F888
:100080008C11AF32CA57E974000000080002010069
:100090000003040700000000000000000000000052
:1000A000250028002B0000000000240027002A0063
:1000B00000000000230026002900040404040404B6
:1000C0000404020202020202030303030303010207
:1000D00004081020408001020408102001020408D6
:1000E0001020C51A11241FBECFEFD8E0DEBFCDBF50
:1000F00012E0A0E0B1E0E4ECF2E402C005900D9261
:10010000A237B107D9F723E0A2E7B2E001C01D9200
:10011000AF3CB207E1F710E0C2E7D0E004C021979E
:10012000FE010E94581FC137D107C9F70E94C91BA1
:100130000C9460210C9400008CBD9DBD0895FC01C1
:10014000818D928D089508950895AF92BF92CF92B8
:10015000DF92EF92FF920F931F93CF93DF936C0187
:100160007B018B01040F151FEB015E01AE18BF0868
:10017000C017D10759F06991D601ED91FC9101901A
:10018000F081E02DC6010995892B79F7C501DF9132
:10019000CF911F910F91FF90EF90DF90CF90BF9084
:1001A000AF900895FC01538D448D252F30E0842FAE
:1001B00090E0821B930B541710F0CF96089501978F
:1001C0000895FC01918D828D981761F0A28DAE0F7C
:1001D000BF2FB11D5D968C91928D9F5F9F73928F03
:1001E00090E008958FEF9FEF0895FC01918D828D2F
:1001F000981731F0828DE80FF11D858D90E00895FC
:100200008FEF9FEF0895FC01918D228D892F90E053
:10021000805C9F4F821B91098F73992708958CEA08
:1002200092E00E94030121E0892B09F420E0822F53
:10023000089580E090E0892B29F00E940F01811140
:100240000C9400000895FC01A48DA80FB92FB11DD6
:10025000A35ABF4F2C91848D90E001968F739927FC
:10026000848FA689B7892C93A089B1898C918370DA
:1002700080648C93938D848D981306C00288F389D3
:10028000E02D80818F7D80830895EF92FF920F9300
:100290001F93CF93DF93EC0181E0888F9B8D8C8D32
:1002A00098131AC0E889F989808185FF15C09FB726
:1002B000F894EE89FF896083E889F98980818370E9
:1002C000806480839FBF81E090E0DF91CF911F9198
:1002D0000F91FF90EF900895F62E0B8D10E00F5FB9
:1002E0001F4F0F731127E02E8C8D8E110CC00FB68F
:1002F00007FCFACFE889F989808185FFF5CFCE0127
:100300000E942301F1CFEB8DEC0FFD2FF11DE35A7D
:10031000FF4FF0829FB7F8940B8FEA89FB898081A9
:100320008062CFCFCF93DF93EC01888D8823B9F023
:10033000AA89BB89E889F9898C9185FD03C08081F0
:1003400086FD0DC00FB607FCF7CF8C9185FFF2CF6D
:10035000808185FFEDCFCE010E942301E9CFDF919F
:10036000CF910895833081F028F4813099F0823064
:10037000A9F008958730A9F08830C9F08430B1F42D
:10038000809180008F7D03C0809180008F77809363
:100390008000089584B58F7784BD089584B58F7DDE
:1003A000FBCF8091B0008F778093B000089580914B
:1003B000B0008F7DF9CFCF93DF93282F30E0F90184
:1003C000E857FF4F8491F901E253FF4FD491F901AF
:1003D000E654FF4FC491CC23A1F081110E94B201D9
:1003E000EC2FF0E0EE0FFF1FE055FF4FA591B49109
:1003F000EC91ED2381E090E009F480E0DF91CF9172
:10040000089580E090E0FACF1F93CF93DF93282FD9
:1004100030E0F901E857FF4F8491F901E253FF4FB3
:10042000D491F901E654FF4FC491CC23A9F0162FC3
:1004300081110E94B201EC2FF0E0EE0FFF1FE45695
:10044000FF4FA591B4918FB7F894EC91111108C0AA
:10045000D095DE23DC938FBFDF91CF911F9108955C
:10046000DE2BF8CFCF93DF9390E0FC01E253FF4FF8
:10047000249186549F4FFC0184918823D1F090E011
:10048000880F991FFC01EA55FF4FA591B491FC011B
:10049000E456FF4FC591D49161110EC09FB7F894F7
:1004A0008C91E22FE0958E238C932881E223E883C0
:1004B0009FBFDF91CF9108958FB7F894EC91E22B15
:1004C000EC938FBFF6CF3FB7F8948091850290915F
:1004D0008602A0918702B091880226B5A89B05C02C
:1004E0002F3F19F00196A11DB11D3FBFBA2FA92FB3
:1004F000982F8827BC01CD01620F711D811D911DB0
:1005000042E0660F771F881F991F4A95D1F708951B
:100510008F929F92AF92BF92CF92DF92EF92FF9213
:100520006B017C010E9463024B015C01C114D10488
:10053000E104F104B9F00E946302681979098A099B
:100540009B09683E73408105910580F321E0C21A42
:10055000D108E108F10888EE880E83E0981EA11CFE
:10056000B11CE4CFFF90EF90DF90CF90BF90AF90A1
:100570009F908F9008952FB7F894609181027091A9
:10058000820280918302909184022FBF0895FC0122
:1005900020812EBD9B012150310941F051810DB4C4
:1005A00007FEFDCF4EB55EBD4193F5CF6150710999
:1005B000860F971F0DB407FEFDCF2EB5FC012083DB
:1005C0000895E091A602F091A70280819091A50282
:1005D000892B80830895E091A602F091A702908173
:1005E0008091A50280958923808308958EBD0000A7
:1005F0000DB407FEFDCF8EB50895AF92BF92CF9296
:10060000DF92EF92FF920F931F93CF93DF93CDB7BB
:10061000DEB728970FB6F894DEBF0FBECDBF8C01B2
:100620007B016A018091A9028333E1F45801A40E91
:10063000B51EA016B10609F46FC00E94EB0280EF50
:100640000E94F602812F0E94F602802F0E94F6027D
:100650000F5F1F4FF70181917F010E94F6020E94F8
:10066000E102E7CF5B01A40EB51E8433C1F40E9402
:10067000EB0219830A838D2D80688B83CC8264E022
:1006800070E0CE0101960E94C702AE14BF0409F4C7
:1006900041C0F70181917F010E94F602F6CF0E94CE
:1006A000EB020F3F110509F028F419820A8384E058
:1006B0008B830CC017FD17C019820A8333E016958F
:1006C00007953A95E1F7007E0C600B8386E0C8162B
:1006D000D104A0F5F701DE011496EA15FB0599F0A7
:1006E00081918D93FACFC80126E0969587952A953A
:1006F000E1F7807E19830A830115104C10F48461A0
:10070000D7CF8C61D5CFB6016D5F7F4FCE010196FB
:100710000E94C7020E94E102C60128960FB6F89413
:10072000DEBF0FBECDBFDF91CF911F910F91FF9024
:10073000EF90DF90CF90BF90AF90089563E070E0AE
:10074000CE0101960E94C702F70181917F010E94AC
:10075000F602AE14BF04C1F7DDCFCF93DF931F9233
:10076000CDB7DEB7898341E050E0BE016F5F7F4FB8
:1007700090E080E00E94FD020F90DF91CF910895FC
:1007800090E02091A902233339F40C96982F990F09
:10079000990F990F80E008954896F8CFDA01E0911B
:1007A000AA02F0E0FE2FEE27E60FF71F90E0982F49
:1007B0008827A901BD018E0F9F1F0C94FD02CF93C6
:1007C000DF9300D0CDB7DEB779836A8322E030E0D3
:1007D000AE014F5F5F4F60E170E00E94CE030F906B
:1007E0000F90DF91CF910895CF93DF9300D0CDB7D5
:1007F000DEB779836A8322E030E0AE014F5F5F4F5E
:1008000064E070E00E94CE030F900F90DF91CF91D3
:100810000895CF93DF931F92CDB7DEB72091AA0240
:1008200030E0322F2227260F371F90E0982F88279D
:10083000498341E050E0BE016F5F7F4F820F931FFD
:100840000E94FD020F90DF91CF910895CF93DF9327
:100850001F92CDB7DEB76983DC01ED91FC91028078
:10086000F381E02D41E050E0BE016F5F7F4F0995BD
:100870000F90DF91CF910895FC019485FB01848551
:10088000981303C081E0943008F080E00895CF937E
:10089000DF931F92CDB7DEB76983DC01ED91FC9148
:1008A0000280F381E02D41E050E0BE016F5F7F4F99
:1008B00009950F90DF91CF9108950895FF920F93BE
:1008C0001F93CF93DF93EB01FC01178A168A2A81CD
:1008D000211109C02B81211106C02C81211103C0D7
:1008E0002D81222301F141155105E9F08A01FC0116
:1008F000F08C80E591E00E949C00AE014E5F5F4F5E
:1009000024E030E06CE070E08F2D0E94CE03B8014F
:100910008F2D0E94DF0381E090E0DF91CF911F9146
:100920000F91FF90089580E0F7CFFC0184859585B5
:100930000895FC0184899589089526EA31E0FC0137
:1009400031832083FB014089518962897389FC01CD
:1009500042835383648375830895DC01ED91FC9198
:10096000048CF58DE02D099490E080E00895DC0181
:1009700080E0615090F09D919827E92FEF70F0E0B2
:10098000E859FF4F2491E92FE295EF70F0E0E85825
:10099000FF4FE491822F8E27ECCF0895DC012C913C
:1009A0001196ED91FC91F8948181822B8183928143
:1009B000322F30959323928387E090E00197F1F7EF
:1009C00081818323818383E290E00197F1F7908115
:1009D0007894EFECF0E03197F1F7922381E009F49D
:1009E00080E00895FC0190810180F281E02D292FA3
:1009F000209560FF14C0F8948281822382838181D4
:100A0000892B8183A3E2B0E01197F1F78281982BC3
:100A10009283789487ED90E00197F1F70895F89428
:100A20008281822382838181892B8183AFEFB0E031
:100A30001197F1F78281982B928378948FE090E060
:100A4000EBCFDF92EF92FF920F931F93CF93DF9341
:100A5000EC01D62EE42E08E010E0FF24F39461E0D0
:100A60008D2D8F2109F460E0CE010E94F204FF0C6D
:100A700001501109A1F7E11010C0F894E981FA8141
:100A800091818881809589238183E981FA8192818E
:100A900088818095892382837894DF91CF911F91FB
:100AA0000F91FF90EF90DF900895FC0190810180FD
:100AB000F281E02DF8948181292F20958223818372
:100AC00078943DE743E050E0315029F1DA01119785
:100AD000F1F780818923C1F3F89482818223828394
:100AE0008181892B81837894ABE7B7E01197F1F787
:100AF000F894818182238183A3E1B1E01197F1F71A
:100B00008081982381E009F080E07894E3E6F6E0C4
:100B10003197F1F7089580E00895FC0176876587A5
:100B20000895DC01ED91FC91068CF78DE02D09957F
:100B300091E089270895862F089581E086270895FA
:100B400021E0FC018485843008F020E0822F0895A4
:100B5000FC0180819181009711F00C94FA1F089597
:100B6000EF92FF920F931F93CF93DF93EC017B01E2
:100B70008A0188819981009729F02A813B81241775
:100B8000350788F4B8016F5F7F4F0E94832000977C
:100B900091F0998388831B830A832C813D81232BC9
:100BA00011F4FC0110821D830C83B70188819981A7
:100BB0000E9459210CC088819981009711F00E94F0
:100BC000FA1F198218821D821C821B821A82CE0192
:100BD000DF91CF911F910F91FF90EF900895FC014D
:100BE000118210821382128215821482FB010190FD
:100BF0000020E9F73197AF01461B570B0C94B00565
:100C0000FB0101900020E9F73197AF01461B570B1C
:100C1000DC01ED91FC910280F381E02D09948F922B
:100C20009F92AF92BF92EF92FF920F931F93CF9339
:100C3000DF93CDB7DEB7A1970FB6F894DEBF0FBE36
:100C4000CDBF7C01FA01CB0119A2223008F42AE0C1
:100C50008E010F5D1F4F822E912CB12CA12CBF0154
:100C6000A50194010E94611EF901CA016A300CF5C8
:100C7000605DD8016E938D01232B242B252B79F7F2
:100C800090E080E0109721F0BD01C7010E940006AE
:100C9000A1960FB6F894DEBF0FBECDBFDF91CF9106
:100CA0001F910F91FF90EF90BF90AF909F908F900A
:100CB0000895695CDECFCF93DF93BC018CEA92E0AC
:100CC0000E940006EC0168EA71E08CEA92E00E9462
:100CD00000068C0F9D1FDF91CF9108958F929F92F8
:100CE000AF92BF92CF92DF92EF92FF920F931F933A
:100CF000CF93DF937C01EB016C0182E0C80ED11C25
:100D00004701E5E08E0E911C10E000E0F6014191F4
:100D10006F0150E070E060E02AE0CE010E940F0613
:100D20005C01E881F9810190F081E02D6EE2CE0155
:100D300009958A0D9B1D080F191FC814D90431F796
:100D4000F701458150E070E060E02AE0CE010E94AA
:100D50000F06800F911FDF91CF911F910F91FF9090
:100D6000EF90DF90CF90BF90AF909F908F900895BD
:100D7000AF92BF92CF92DF92EF92FF920F931F93A9
:100D8000CF93DF9300D000D0CDB7DEB78C016B01DD
:100D90007A018091A9028333E9F45B016801C40EF2
:100DA000D51EC016D106A9F10E94EB028FE00E9469
:100DB000F602812F0E94F602802F0E94F6020F5F3A
:100DC0001F4F80E00E94F602F50181935F010E94AF
:100DD000E102E7CF843369F50E94EB0219830A83AD
:100DE0008F2D8F778B83EC8264E070E0CE010196CB
:100DF0000E94C702A70170E060E0C6010E9449217D
:100E0000E114F10421F0B701C6010E94C7020E945B
:100E1000E102C7010F900F900F900F90DF91CF91DB
:100E20001F910F91FF90EF90DF90CF90BF90AF9008
:100E300008950E94EB020F3F110509F030F419826A
:100E40000A831B8263E070E0D1CF17FD0BC01982CB
:100E50000A8333E0169507953A95E1F7007E08601E
:100E60000B83F0CFC80126E0969587952A95E1F788
:100E7000807E19830A830115104C18F480618B83DE
:100E8000E1CF8861FCCFCF93DF931F92CDB7DEB760
:100E90002091AA0230E0322F2227260F371F90E040
:100EA000982F882741E050E0BE016F5F7F4F820F8F
:100EB000931F0E94B80689810F90DF91CF9108950A
:100EC000CF93C82F462F61E070E00E94090461E0D3
:100ED00070E08C2F0E9443078111F9CFCF910895C4
:100EE000CF93C82F80E591E00E949C0068E070E0FD
:100EF0008C2FCF910C946007CF93C82F80E591E0A1
:100F00000E949C0060E170E08C2FCF910C946007F0
:100F1000CF93DF93EC01888D843020F40E947C070E
:100F200084E0888FDF91CF910895CF93C82F80E51B
:100F300091E00E949C0063E070E08C2FCF910C94B4
:100F40004307CF93DF93EC018C858430D0F40E946B
:100F50009507843189F0882379F0883169F021E0A0
:100F60008C3159F4E881F9810084F185E02DCE01BE
:100F7000099521E0892B09F420E0822FDF91CF91A0
:100F8000089580E0FBCFCF92DF92EF92FF92CF9354
:100F9000DF93EC018C85843068F40E9470070E9416
:100FA000BB026B017C018C850E949507811109C0F1
:100FB00084E08C87DF91CF91FF90EF90DF90CF900E
:100FC000089561E070E080E090E00E9488020E9455
:100FD000BB02AB01BC014C195D096E097F098D850F
:100FE0009E85B0E0A0E0481759076A077B07D8F252
:100FF0008C850E947C07DCCFCF93FC01C08D80E5FF
:1010000091E00E949C0060E270E08C2F0E946007DB
:1010100062E070E08C2F0E94430784FD16C062E0FE
:1010200070E08C2F0E94430783FF0AC048E162E012
:1010300070E08C2F0E94090480E090E0CF91089529
:1010400080E591E00E949C00E3CF40E162E070E027
:101050008C2F0E94090481E0F0CFCF93DF931F9281
:10106000CDB7DEB741E050E0BE016F5F7F4F90E04B
:1010700080E00E94B80689810F90DF91CF9108959A
:10108000CF93DF93C4E1D0E00E942D08882361F064
:1010900061E070E080E090E00E9488022197A1F773
:1010A00080E0DF91CF91089581E0FBCFCF92DF9276
:1010B000EF92FF920F931F93CF93DF93CDB7DEB7DD
:1010C000C454D1090FB6F894DEBF0FBECDBFFC01EA
:1010D00082819381A481B58123968CAF9DAFAEAF01
:1010E000BFAF239721E023962FAF239723964CADD4
:1010F0005DAD6EAD7FAD23974BAB5CAB6DAB7EABA7
:1011000089AF9AAFABAFBCAF8DA79EA7AFA7B8AB67
:1011100028AB4DA55EA56FA578A94FA358A769A7D1
:101120007AA72EAB4BA95CA96DA97EA949A35AA3A6
:101130006BA37CA38B8F9C8FAD8FBE8F46EA51E053
:101140005C8B4B8B3FEF3D8B3E8B3F8B188E5E87CE
:101150004D872AA7CFA0D8A4E9A4FAA4CF86D88A1D
:10116000E98AFA8A2CA309A11AA12BA13CA109871B
:101170001A872B873C875A8349838B839C83AD8353
:10118000BE838091AB028111AFC060E372E080E06A
:1011900090E00E948802DFB6F89404EC10E038ED8D
:1011A000E32E30E0F32E8091A802811125C0F801D2
:1011B0008491F7019491E82FF0E0EE0FFF1FEA55BC
:1011C000FF4FA591B4918C91982321F461E08AE0BE
:1011D0000E94040261E08AE00E9432028CB58061C4
:1011E0008CBD8CB580648CBD61E08DE00E943202C4
:1011F00061E08BE00E9432028091A8028F5F8093B1
:10120000A802DFBEF8010491E02FF0E0EE0FFF1F0F
:10121000E456FF4F859194919093A7028093A60284
:10122000F701E490E092A50261E08AE00E943202B8
:101230000E94E10280E591E00E949C0084E380939B
:10124000A90280E80E94AD030E944008882309F4A7
:1012500081C088E00E94AD030E942D08883009F00B
:1012600079C080E10E94AD030E942D08803109F011
:1012700071C080E00E94AD030E942D08182F8111DB
:1012800069C041E050E0BE016D5B7F4F8FE190E0AF
:101290000E94B80624968FAD2497833009F05AC077
:1012A00080E48093AA0242E06EE170E0812F0E9408
:1012B000090442E06FE170E0812F0E9409041F5F82
:1012C000143089F740E06EE170E0812F0E9409043C
:1012D00040E06FE170E0812F0E9409041F5F183029
:1012E00089F781E08093AB0280E591E00E949C0049
:1012F00046E050E062E071E089E090E00E94FD028B
:1013000044E050E0BE016D5F7F4F8FE090E00E94AF
:10131000FD0244E050E0BE01615F7F4F81E090E05C
:101320000E94FD0244E050E0BE016B5E7F4F85E00D
:1013300090E00E94FD0281E08C8789859A85AB85CB
:10134000BC858093690390936A03A0936B03B09369
:101350006C036FC087E38093A90280E80E94AD030D
:101360000E944008882339F188E00E94AD030E9462
:101370002D08883001F580E10E94AD030E942D0800
:10138000182F8031C1F480E00E94AD030E942D0827
:10139000811111C041E050E0BE016D5B7F4F89E3D8
:1013A00090E00E94B80624968FAD2497843019F4FB
:1013B0001093AA0296CF83E38093A90280E80E944B
:1013C000AD030E944008882391F180E10E94AD03A3
:1013D0000E942D08803159F582E10E94AD030E94E0
:1013E0002D08823121F580E00E94AD030E942D0876
:1013F00081111DC084E08093AA0215E525961FAFD8
:10140000259741E050E0BE016C5B7F4F8BE190E09F
:101410000E94FD0224961FAF249741E050E0BE01D8
:101420006D5B7F4F8AE190E00E94FD025ACF1092DF
:10143000A902CC5BDF4F0FB6F894DEBF0FBECDBF65
:10144000DF91CF911F910F91FF90EF90DF90CF90A0
:1014500008951F93CF93DF931F92CDB7DEB7182F58
:1014600080E591E00E949C00812F0E94C00327E04C
:10147000129FF0011124E757FD4F2281338137700D
:1014800041E050E0BE016F5F7F4F820F931F0E94CB
:10149000B80689810F90DF91CF911F910895FC01CB
:1014A000808D843040F4218D328D232B21F00E94D9
:1014B000290A90E008958FEF9FEF0895CF93DF936F
:1014C000FC012485243028F08FEF9FEFDF91CF912E
:1014D0000895EC010190F081E02D0084F185E02D6C
:1014E0000995892B89F38C850E94290A90E0EECF1B
:1014F000DA01E091AA02F0E0FE2FEE27E60FF71FD7
:1015000090E0982F8827A901BD018E0F9F1F0C9492
:10151000B8068F929F92AF92BF92CF92DF92EF92D6
:10152000FF921F93CF93DF93CDB7DEB72C970FB603
:10153000F894DEBF0FBECDBF2091A90214E0222394
:1015400039F16B017C0180E591E00E949C005E0115
:1015500027E0A20EB11C450110E063E070E0812F8E
:101560000E944307F40181934F01882349F11F5FD3
:10157000143099F710E0F50181915F018D31D9F0B8
:101580008831C9F08A518230B0F01F5F143099F76A
:10159000812F2C960FB6F894DEBF0FBECDBFDF9122
:1015A000CF911F91FF90EF90DF90CF90BF90AF90C1
:1015B0009F908F90089560E170E0812F0E946007F6
:1015C000A12EB12C83EE93E00197F1F742E870E091
:1015D00060E0812F0E9409044FEF62E070E0812FEC
:1015E0000E940904B601C114D10491F48091000154
:1015F0009091010101968115F0EC9F0708F45CC001
:1016000090930101809300016091000170910101AC
:10161000812F0E94F40386E0EEE0F1E0DE011196F6
:1016200001900D928A95E1F7F70183818F778C8382
:1016300084818D8385818E83A7014E5F5F4F24E077
:1016400030E06CE070E0812F0E94CE03B601812F64
:101650000E94DF0326E030E0AE014F5F5F4F66E09F
:1016600070E0812F0E94CE0361E070E0812F0E9424
:10167000600727E02A9DC0012B9D900D11249C013D
:1016800027573D4F7901F9011182108222E030E0A5
:10169000AE01455F5F4F68E270E0812F0E94780ADB
:1016A0008B859C85982789279827F70193838283C8
:1016B0001682158214826CCF80E090ECA1CFCF927D
:1016C000DF92EF92FF920F931F93CF93DF9300D09F
:1016D00000D000D0CDB7DEB78C016B017A01FC01E0
:1016E000808D843010F40E947C0786EA91E09A8312
:1016F0008983F60182819381A481B5818B839C8348
:10170000AD83BE83B701CE0101960E94890AF8011C
:10171000808F8430A0F4F586E486128E118E81E0ED
:1017200026960FB6F894DEBF0FBECDBFDF91CF91E6
:101730001F910F91FF90EF90DF90CF90089580E080
:10174000EFCFAF92BF92CF92DF92EF92FF920F93C3
:101750001F93CF93DF9300D000D000D0CDB7DEB77A
:10176000082F6B0180E591E00E949C009E012F5F95
:101770003F4F7901590110E063E070E0812F0E9432
:101780004307F50181935F01882341F11F5F143006
:1017900099F710E0F70181917F018D31D1F0883107
:1017A000C1F08A518230A8F01F5F143099F7812F61
:1017B00026960FB6F894DEBF0FBECDBFDF91CF9156
:1017C0001F910F91FF90EF90DF90CF90BF90AF905F
:1017D000089560E170E0812F0E946007E12EF12CF6
:1017E00083EE93E00197F1F7402F70E060E0812FE6
:1017F0000E9409044FEF62E070E0812F0E9409040B
:10180000B601CD2889F480910001909101010196E3
:101810008115F0EC9F0798F19093010180930001EE
:101820006091000170910101812F0E94F40361E039
:1018300070E0812F0E94600727E02E9DC0012F9D40
:10184000900D11249C0127573D4F7901F901118218
:10185000108222E030E0AE014B5F5F4F68E270E043
:10186000812F0E94780A8D819E8198278927982749
:10187000F7019383828316821582148298CF80E0C9
:1018800090ECCACFCF92DF92EF92FF921F93CF934B
:10189000DF93EC017B016A018C85843048F40E945F
:1018A0009507882319F08C850E94700784E08C8747
:1018B000F70182819381A481B5810097A105B105CB
:1018C00051F490E080E0DF91CF911F91FF90EF9075
:1018D000DF90CF9008958F3F9F4FAF4FBF4F89F359
:1018E0008091A902811103C084E08C87EACF70E067
:1018F00060E081E20E94A10B182F8C87843008F7EA
:1019000080E591E00E949C00A7014E5F5F4F24E0BC
:1019100030E06CE070E0812F0E94CE03B601812F91
:101920000E94DF0364E070E0812F0E9460070E9444
:10193000BB026B017C018C850E949507873109F100
:101940008C31F9F0882309F4BCCF0E94BB02AB01B3
:10195000BC014C195D096E097F098D859E85B0E03B
:10196000A0E084179507A607B70738F061E070E09C
:1019700080E090E00E948802DECF8C850E947C0788
:10198000B3CF81E090E09FCF0F931F93CF93DF936E
:10199000EC018B01888D843010F40E947C078091CB
:1019A000A902811107C094E0988FDF91CF911F9118
:1019B0000F910895B80182E00E94A10B888F8430B6
:1019C00030F41D870C871A8E198E81E0EECF80E0EF
:1019D000ECCF7F928F929F92AF92BF92CF92DF9285
:1019E000EF92FF920F931F93CF93DF9300D0CDB769
:1019F000DEB7782E8B014A01590122E030E0AE01BA
:101A00004F5F5F4F64E270E00E94780AE980FA80DD
:101A1000FE24EF24FE24E00EF11E97013770409162
:101A2000A902072D10E0433309F042C0085F1F4FA1
:101A3000102F0027110F110F110FC901800F911FD7
:101A40004733C9F1A9014A0D5B1D4130584098F157
:101A500060E078E06B01C21AD30AA601B4010E94CB
:101A6000FD02A5014C195D09B4016C0D7D1DC80175
:101A70000E94FD02EA0CFB1CF982EA8222E030E0BF
:101A8000AE014F5F5F4F64E270E0872D0E94CE038E
:101A90000F900F90DF91CF911F910F91FF90EF90DA
:101AA000DF90CF90BF90AF909F908F907F900895E0
:101AB000005F1F4FBDCFA501B401DACFEF92FF92B7
:101AC0001F93CF93DF9300D0CDB7DEB7182F22E05E
:101AD00030E0AE014F5F5F4F60E270E00E94780A35
:101AE000E980FA80FE24EF24FE2422E030E0AE01FB
:101AF0004F5F5F4F60E270E0812F0E94780A89811A
:101B00009A81982789279827E816F90689F487E0AB
:101B1000189FF0011124E757FD4FF582E482C701B9
:101B20000F900F90DF91CF911F91FF90EF9008954C
:101B30007C01DBCF1F93CF93DF93182F80E591E0DB
:101B40000E949C00812F0E945E0DEC0163E070E01A
:101B5000812F0E944307873121F08C3111F0D0E0B2
:101B6000C0E0CE01DF91CF911F910895CF93DF9315
:101B7000EC018C85843060F40E949507873111F068
:101B80008C3131F48C850E949A0D8115984088F330
:101B9000DF91CF910895FC018485843010F40C947A
:101BA0009A0D90E080E008959F92AF92BF92CF92FD
:101BB000DF92EF92FF920F931F93CF93DF938C01ED
:101BC0005B01942EE52EFC01C688D788F08C80E559
:101BD00091E00E949C008F2D0E945E0DC92DDE2D8C
:101BE0008C179D0708F4EC019E01A501B6018F2D0D
:101BF0000E94E90CF801868997898C0F9D1F978BAD
:101C0000868BCE01DF91CF911F910F91FF90EF90C6
:101C1000DF90CF90BF90AF909F9008958F929F924A
:101C2000AF92BF92CF92DF92EF92FF920F931F93EA
:101C3000CF936C015B018A01FC01C485C430F0F5CF
:101C40007A014130584018F0E12C88E0F82E80E508
:101C500091E00E949C008C2F0E945E0D4C0163E07D
:101C600070E08C2F0E944307873111F08C3149F5C9
:101C70008E149F0460F380E591E00E949C00970120
:101C8000A50170E060E08C2F0E94E90C60E270E03A
:101C90008C2F0E94600762E070E08C2F0E94430747
:101CA00084FD17C063E070E08C2F0E944307811110
:101CB0000BC081E090E0F6019383828310E000E0A6
:101CC00010C0F12CE12CD7CF80E591E00E949C0060
:101CD000E2CF40E162E070E08C2F0E940904EF281F
:101CE00041F3C801CF911F910F91FF90EF90DF90CA
:101CF000CF90BF90AF909F908F900895FF920F93D9
:101D00001F93CF93DF9300D0CDB7DEB7F82E22E03C
:101D100030E0AE014F5F5F4F66E270E00E94780AEC
:101D200009811A8110270127102722E030E0AE0137
:101D30004F5F5F4F66E270E08F2D0E94780A8981C5
:101D40009A819827892798270817190749F4C80105
:101D50000F900F90DF91CF911F910F91FF900895F9
:101D60008C01E3CF1F93CF93DF93182F87E0189F49
:101D7000E0011124C757DD4F88819981009761F4F4
:101D800080E591E00E949C00812F0E947E0E2E81B2
:101D9000821B910999838883DF91CF911F910895C8
:101DA000FC018485843010F40C94B20E90E080E045
:101DB00008954F925F927F928F929F92AF92BF92BF
:101DC000CF92DF92EF92FF920F931F93CF93DF9307
:101DD00000D0CDB7DEB7782E6B014A01A82EB12C0A
:101DE00027E0829FC0011124FC01E757FD4F7F01CE
:101DF0000081118180E591E00E949C000815190581
:101E000054F4872D0E947E0EF70126818C01021B5F
:101E10001109118300830115110529F563E070E0B4
:101E2000872D0E944307843159F0882349F001E04F
:101E300010E08C3111F410E000E0119501951109CA
:101E4000C8010F900F90DF91CF911F910F91FF90DC
:101E5000EF90DF90CF90BF90AF909F908F907F904A
:101E60005F904F900895801691060CF4840187E0EE
:101E70008A9DF0018B9DF00D1124E757FD4FE28004
:101E8000F380C114D10451F12701F7E05F22872DBF
:101E90000E94C003840D951D2091A902273309F4E7
:101EA00053C09801240D351D2130384008F44CC032
:101EB00020E038E0490184189508A401B6010E9489
:101EC000B8062601480C591C6801C818D908872D86
:101ED0000E94C003A601B2010E94B806E00EF11EE6
:101EE00087E08A9DF0018B9DF00D1124E757FD4F8F
:101EF000F382E28220813181201B310B31832083E8
:101F00008681800F912F911D8A3F910510F4232B1C
:101F1000F1F487E08A9DF0018B9DF00D1124E757C5
:101F2000FD4F1682F982EA8222E030E0AE014F5F77
:101F30005F4F68E270E0872D0E94CE0360E470E09E
:101F4000872D0E9460077CCFA801B601C5CF86838C
:101F500077CFCF93DF93FC01218D328D2115310591
:101F600029F48FEF9FEFDF91CF910895EC01808DE1
:101F70004217530708F0A9010E94D90E1816190636
:101F800084F7298D3A8D281B390B3A8F298FEBCF97
:101F90000F931F93CF93DF931F92CDB7DEB7FC0152
:101FA000218D328D232B41F48FEF9FEF0F90DF9126
:101FB000CF911F910F9108958C0141E050E0BE0137
:101FC0006F5F7F4FFC01808D0E94D90E1816190695
:101FD0005CF7F801818D928D0197928F818F8981B5
:101FE00090E0E4CFCF93DF931F92CDB7DEB741E00F
:101FF00050E0BE016F5F7F4FFC0184850E94D90EC7
:102000001816190634F4898190E00F90DF91CF9172
:1020100008958FEF9FEFF9CFFC018485843010F491
:102020000C94D90E90E080E008950F931F93CF9306
:10203000DF9300D0CDB7DEB7FC0124852430E0F477
:102040008C0180E591E00E949C0022E030E0AE012E
:102050004F5F5F4F60E170E0F80184850E94780A6D
:1020600089819A819827892798270F900F90DF916F
:10207000CF911F910F91089590E080E0F6CF0F93DC
:102080001F93CF93DF9300D0CDB7DEB7FC0124853B
:102090002430E0F48C0180E591E00E949C0022E075
:1020A00030E0AE014F5F5F4F64E070E0F80184857F
:1020B0000E94780A89819A819827892798270F900A
:1020C0000F90DF91CF911F910F91089590E080E0E4
:1020D000F6CF0F931F93CF93DF93CDB7DEB728973B
:1020E0000FB6F894DEBF0FBECDBF8C01D801599654
:1020F0004D915C915A974115510551F0ED91FC912C
:10210000048CF58DE02D70E060E0C8010995EECFFC
:10211000F801808D0E94B20E892BB1F148E050E0A9
:10212000BE016F5F7F4FD80158968C910E94D90EE7
:1021300018161906F4F4D801509684E0FE01319681
:1021400001900D928A95E1F78D8190E0982F882774
:102150002E81820F911DF801958B848B8F81282F02
:1021600030E0322F22278885820F932F911D928F86
:10217000818F28960FB6F894DEBF0FBECDBFDF91DA
:10218000CF911F910F91089590E080E0F2CF4F9290
:102190005F926F927F928F929F92AF92BF92CF92F7
:1021A000DF92EF92FF920F931F93CF93DF93CDB700
:1021B000DEB763970FB6F894DEBF0FBECDBF7C01CC
:1021C0006B013A01FB0120E090E080E06AE0319190
:1021D000332309F461C040ED430F4A3008F04DC08D
:1021E000689FA001699F500D1124CA01C097830FF9
:1021F000911D37FD9A958F3F910549F340F3F70103
:102200004281538164817581809175039091760339
:10221000A0917703B0917803481759076A077B07A5
:1022200009F40DC28701085F1F4F0E94BB026F7047
:1022300077277C5FC8010E94C40C813009F004C27A
:1022400086EA91E09A838983F70182819381A48150
:10225000B5818B839C83AD83BE8345E350E0BE0193
:102260006F5F7F4FC8010E945E04892BA9F5D12CB6
:10227000C12CC8010E94880717C03E3209F0BFCFA9
:10228000233009F4BCCFD301A20FB11D12968C9359
:102290002F5F90E080E09BCF233009F0B0CFF301B7
:1022A0008583CC24C394D12CC60163960FB6F894D1
:1022B000DEBF0FBECDBFDF91CF911F910F91FF9079
:1022C000EF90DF90CF90BF90AF909F908F907F90D6
:1022D0006F905F904F9008950E94BB02F701778343
:1022E000668342E050E0B7016A5F7F4FC8010E94F9
:1022F000D40D81E090E09A83898342E050E0BE01F2
:102300006F5F7F4FC8010E94D40D80E091E09A83F7
:10231000898342E050E0BE016F5F7F4FC8010E9499
:10232000D40D1A82198242E050E0BE016F5F7F4FE8
:10233000C8010E94D40D42E050E0BE016F5F7F4FA4
:10234000C8010E94D40D42E050E0BE016F5F7F4F94
:10235000C8010E94D40D5601F6018081882301F145
:102360006501F60181912F01882311F08E32B1F4BD
:1023700046018A189B081814190474F48D8641E0EC
:1023800050E0BE01635F7F4FC8010E94D40DA401DD
:10239000B501C8010E94D40D5201DECF6201E1CF28
:1023A0001D8641E050E0BE01635F7F4FC8010E947F
:1023B000D40DC12CDD24D394DA82C98242E050E0EE
:1023C000BE016F5F7F4FC8010E94D40DDA82C982BF
:1023D00042E050E0BE016F5F7F4FC8010E94D40D04
:1023E000C8010E94FC07892B09F441CFF3E0AF2E0E
:1023F000B12C230122E0420E511CD4C0F7014281CE
:10240000538164817581808D918DA28DB38D481724
:1024100059076A077B0709F008C1848D958DC59718
:1024200009F003C181A192A15DEFC52EDD24DA94EC
:102430000C970CF4ADC04CE050E0BE016F5F7F4FD5
:10244000C8010E94A90F8B819C8198278927982712
:102450009A8B898BF7014681578129813A814217EE
:10246000530709F0E7C097FFE5C08F7092703BEF0C
:10247000C32EDD24DA94892B09F08AC06F8078841A
:102480007624672476242AEFC22EDD24DA946114A0
:10249000710409F47DC0D12CC12C8D819E819827B7
:1024A00089279827C816D906F8F441E050E0BE0104
:1024B000635F7F4FC8010E94A90F4D85442331F00F
:1024C00050E070E060E0C8010E94A90F8D85811185
:1024D000ECCF44E050E070E060E0C8010E94A90F3A
:1024E000FFEFCF1ADF0AD9CF912C812C41E050E0C9
:1024F000BE016D5E7F4FC8010E94A90F4B89842FDA
:10250000807C09F06CC0442331F050E070E060E062
:10251000C8010E94A90F8B898111E8CF42E050E0E9
:10252000BE01615F7F4FC8010E94A90F42E050E0E9
:10253000BE01635F7F4FC8010E94A90F44E050E0D5
:1025400070E060E0C8010E94A90F42E050E0BE01C7
:102550006F5E7F4FC8010E94A90F8F8598894989B6
:102560005A898115914009F043C0CD84DE84DC2472
:10257000CD24DC2481E0C816D104D1F541155440A6
:1025800009F04AC044E050E0B201C8010E94A90F1E
:1025900021E0A21AB10809F46CCEFFEFCF16DF06D6
:1025A00009F067CE0E94BB023B014C01C8010E94AA
:1025B0006910181619060CF421CF0E94BB02661987
:1025C000770988099909693873418105910548F5AA
:1025D00062E370E080E090E00E948802E7CF41E093
:1025E00050E070E060E0C8010E94A90F1B8A93CF01
:1025F00054274527542770E060E0C8010E94A90FC6
:10260000FFEF8F1A9F0A6814790409F06FCF96EFD5
:10261000C92EDD24DA94BCCFE7EFCE2EDD24DA9488
:10262000B7CFCC24CA94DC2CB3CF6EEFC62EDD24FA
:10263000DA94AECF4CEFC42EDD24DA94A9CF8EEF1E
:10264000C82EDD24DA9430CED12CC12C2DCECF92E1
:10265000DF92EF92FF920F931F93CF93DF93CDB74B
:10266000DEB7AF970FB6F894DEBF0FBECDBF7C01CB
:102670006A0106EA11E01A8309831C861B8688EE2C
:1026800093E0A0E0B0E08D879E87AF87B88B8CE3A6
:1026900091E09A878987188F0F8B198E1A8E1B8E5F
:1026A0001C8E84E089A31BA70AA71CA61DA61EA634
:1026B0001FA68091690390916A03A0916B03B0916A
:1026C0006C038EA39FA3A8A7B9A78B839C83AD831C
:1026D000BE8318861F82AE01465D5F4FCE01019614
:1026E0000E94C71081309105B1F4D701ED91FC91A2
:1026F0000488F589E02D1DA30CA38CA59DA5AEA58E
:10270000BFA58EA39FA3A8A7B9A7A601BE016C5D14
:102710007F4FC7010995AF960FB6F894DEBF0FBE85
:10272000CDBFDF91CF911F910F91FF90EF90DF9080
:10273000CF900895CF92DF92EF92FF920F931F9365
:10274000CF93DF93CDB7DEB7AF970FB6F894DEBF68
:102750000FBECDBF8C016B017A0186EA91E09A83AE
:1027600089831B821C821D821E821C861B8648EE6A
:1027700053E060E070E04D875E876F87788B2CE3D5
:1027800031E03A872987988F8F8B198E1A8E1B8E8E
:102790001C8E24E029A39BA78AA71CA61DA61EA603
:1027A0001FA6D8011C968C91843060F40E94950776
:1027B000882321F0F80184850E94700784E0D80105
:1027C0001C968C938091690390916A03A0916B038E
:1027D000B0916C038EA39FA3A8A7B9A78B839C83FA
:1027E000AD83BE8318861F82AE01465D5F4FB60182
:1027F000CE0101960E94C7100097C1F0D801ED915B
:10280000FC910684F785E02D86EA91E09DA38CA3D8
:102810008CA59DA5AEA5BFA58EA39FA3A8A7B9A76C
:10282000A701BE016C5D7F4FC8010995AF960FB639
:10283000F894DEBF0FBECDBFDF91CF911F910F91F6
:10284000FF90EF90DF90CF900895EF92FF920F935B
:102850001F93CF93DF9300D000D0CDB7DEB78C01AC
:102860007B01FB0184858430A8F086EA91E0F801C1
:10287000918380831282138214821582C8010F9083
:102880000F900F900F90DF91CF911F910F91FF90BC
:10289000EF90089580E591E00E949C0024E030E0F4
:1028A000AE014F5F5F4F6CE070E0F70184850E94DE
:1028B000780A86EA91E0F8019183808389819A8180
:1028C000AB81BC8182839383A483B583D7CF2F92BE
:1028D0003F924F925F926F927F928F929F92AF92B0
:1028E000BF92CF92DF92EF92FF920F931F93CF93FD
:1028F000DF93CDB7DEB7C651D1400FB6F894DEBF37
:102900000FBECDBF0E94BB0260937C0270937D021C
:1029100080937E0290937F02009178021091790259
:1029200020917A0230917B02601B710B820B930B1A
:1029300026E0E4E1F1E0DE01A950BF4F01900D92E5
:102940002A95E1F726E0EAE1F1E0DE01A350BF4F6E
:1029500001900D922A95E1F72CE0E0E2F1E0DE0132
:10296000A352BF4F01900D922A95E1F723E0E22E8A
:10297000F12C603177428105910508F44BC18091BB
:102980009D0390919E030E94550540E06CEC809160
:102990009D0390919E030E9421054091940364E45D
:1029A00080919D0390919E030E9421058091980340
:1029B000882311F1E091970380919903882309F40A
:1029C000E3C1809194038111DFC10E94BB026B01BE
:1029D0007C0180919D0390919E030E94CE048130E2
:1029E00059F00E94BB026C197D098E099F096E3E49
:1029F00072408105910568F313E0E12EF12C10E09F
:102A000000E0AE01465F5F4FC75FDE4F59834883EA
:102A1000C950D140802EE0919D03F0919E03138612
:102A200015861486128611861086178216821582E4
:102A300014821382912CA0909D03B0909E03D50127
:102A40001D968C91882309F4C7C1F501138615865C
:102A5000148660E070E08EEF92ECF801EE0FFF1F3D
:102A6000EE0FFF1F29EC30E02C0F3D1FE20FF31F8C
:102A7000608371838283938320E030E04EEF52ECD9
:102A80000E94061D811103C0780110E000E0F801EA
:102A9000EE0FFF1F4DEF50E04C0F5D1FE40FF51FD1
:102AA000608171816115710521F08CEA92E00E94CC
:102AB00000066BEA71E08CEA92E00E940006F801E1
:102AC000EE0FFF1FEE0FFF1F89EC90E08C0F9D1F94
:102AD000E80FF91F80809180A280B380A501940146
:102AE000C501B4010E942B1F6EEA71E081111BC069
:102AF00024013501E89477F82FEF3FEF4FE75FE7C8
:102B0000C301B2010E942B1F811159C22FEF3FEF69
:102B10004FE75FE7C301B2010E94061D18160CF0D3
:102B20004EC262EB71E08CEA92E00E94000668EA15
:102B300071E08CEA92E00E9400060F5F1F4F0E15B5
:102B40001F050CF467CFC753DF4F88809980AA8098
:102B5000BB80C95CD04020E030E0A901C501B401D0
:102B60000E94261F20E030E040E05FE387FDA5C221
:102B7000C501B4010E94841E0E94F01EC751DF4FA0
:102B800019821882C95ED040C551DF4F1982188260
:102B9000CB5ED040C351DF4F19821882CD5ED0404A
:102BA0002AE08E010F5F1F4FA8010E94C51CF8018B
:102BB00001900020E9F73197AF01401B510BB8019C
:102BC000CE0187519F4F0E94B005C351DF4F48810E
:102BD0005981CD5ED040C751DF4F68817981C95E90
:102BE000D04085E893E00E940E0ECE0187519F4FA2
:102BF0000E94A80580917C0290917D02A0917E02A6
:102C0000B0917F028093780290937902A0937A0228
:102C1000B0937B02DE01A352BF4F4D015E01B9ECC0
:102C2000AB0EB11CE2E8F3E0C55FDE4FF983E88349
:102C3000CB50D14025E732E0C35FDE4F3983288394
:102C4000CD50D14042E752E0CF5EDE4F59834883FA
:102C5000C151D1409FE7C92E93E0D92ECE018950B2
:102C60009F4F1C01A2E3B1E0C15FDE4FB983A8838F
:102C7000CF50D140F701EE57FC4F7F0101E0C55F17
:102C8000DE4F28813981CB50D140E216F30609F49A
:102C900057C2C15FDE4FA881B981CF50D1407C902F
:102CA0001296C15FDE4FB983A883CF50D140F9019E
:102CB0001081872D0E94DB0121E0892B09F420E09F
:102CC000121709F4FFC165E070E080E090E00E9417
:102CD0008802872D0E94DB0121E0892B09F0F5C1D4
:102CE00020E0C35FDE4FA881B981CD50D1408C91E7
:102CF000882351F0CF5EDE4FE881F981C151D14088
:102D00008081882309F4E3C1C55FDE4FE881F98142
:102D1000CB50D1402193C55FDE4FF983E883CB5080
:102D2000D140C35FDE4FA881B981CD50D1408C9195
:102D3000CF5EDE4FE881F981C151D1408193CF5EF2
:102D4000DE4FF983E883C151D1401D92C35FDE4F4E
:102D5000B983A883CD50D140D1011C91B2E02B0E94
:102D6000311CF6018081882309F4B6C160E0812F0F
:102D70000E940402B4E08B0E911CE4E0AE0EB11C84
:102D8000FFEFCF1ADF0A7BCFE9508EEE92E0E330FF
:102D900038F4F0E0EE0FFF1FE45DFE4F808191817B
:102DA0006C01990FEE08FF0880919503882329F0A4
:102DB00060E0809196030E940402C701B6010E9460
:102DC000880280919503882309F416CE61E08091F2
:102DD00096030E94040210CEC5010E945505811180
:102DE0000AC0D5011B961C921B971D961C921D971D
:102DF0001C961C922ECE40E060EFC5010E9421057A
:102E0000CC24C394612C512CDD24D394C5010E94A1
:102E1000CE04782EC5010E94CE04B1E07B122DC0F5
:102E2000813009F04CC0E0E4ED1508F00ECED5017C
:102E30001B965C921B97511003C0E1E01D96EC932A
:102E4000D50113968C91882309F4FFCDF5013396B3
:102E50006E01B9EECB0ED11C2BE0A20EB11CD60137
:102E600081918D93AE16BF06D9F7891409F43EC03F
:102E70009394891408F0DFCDECCDE62DF0E07812C4
:102E800014C0D5011B968C911B97D816B0F4AE0FC9
:102E9000BF1F13968C918C2191F4712CB8E0BD1555
:102EA00018F0D5011C96DC925D2CEA0DFB1D838188
:102EB0009C2D9095892383830AC08D11EECFF50157
:102EC000E60DF11D83818C29838377247394672D0C
:102ED000C5010E94F204D394CC0C19F46394CC2461
:102EE000C394B7E0B61508F091CF9DCF67E0C60157
:102EF0000E94B704D60117969C918913B9CF80918F
:102F00009D0390919E030E945505882309F4A1CD4D
:102F1000A0909D03B0909E0340E065E5C5010E942E
:102F200021054601B8E08B0E911CF60161916F01FD
:102F300040E0C5010E942105C814D904B1F740E062
:102F40006EEB80919D0390919E030E9421059E014E
:102F50002F5F3F4F69015901190160909D037090E7
:102F60009E03B8E08B2E912C512C44244394C30132
:102F70000E94CE0481115428440C31E0831A910838
:102F8000B1F7D5015D925D01C75FDE4FE881F98140
:102F9000C950D140EA17FB0701F780919D0390913A
:102FA0009E030E945505813009F053CDD6018D91C5
:102FB0006D018111FEC1AA15BB05C1F74ACD2FEFE6
:102FC0003FEF4FE75FE4C501B4010E94261F1816CA
:102FD0001CF466EB71E0A7CD2FEF3FEF4FE75FECFE
:102FE000C501B4010E94061D87FDF3CF20E030E04B
:102FF000A901C501B4010E94061D87FF09C06DE249
:103000008CEA92E00E944501B7FAB094B7F8B09408
:103010002AE037ED43EA5BE3C501B4010E94841E58
:103020002B013C010E94F71E4B015C010E940B1D0D
:103030009B01AC01C301B2010E94831E2B013C0124
:103040002AE0B501A4018CEA92E00E940F066EE22C
:103050008CEA92E00E94450120E030E040E251E439
:10306000C301B2010E946C1D2B013C010E94F71E9E
:103070004B01B12CA12C2AE0B501A4018CEA92E00D
:103080000E940F06C501B4010E940B1D9B01AC01FB
:10309000C301B2010E94831E20E030E040E251E40F
:1030A0000E946C1D0E94F71EAB0170E060E02AE0F8
:1030B0008CEA92E00E940F063ACDC501B4010E944D
:1030C000831E5ACD112309F40CCE11110ACED6015C
:1030D0008C9180278C9318CE61E0812F0E9404028E
:1030E000D4014D905D906D907C90D5012D913D91D6
:1030F0004D915C91CD5EDE4F288339834A835B839B
:10310000C351D140C301B2010E94261F60E01816CE
:1031100084F0CD5EDE4F288139814A815B81C351C5
:10312000D140C301B2010E94061D18160CF422CE34
:1031300061E0812F0E940402812F0E94DB011ACEE0
:103140006AEA71E0CE018D5F9E4F0E94EF0585E82F
:1031500093E00E94D00E181619060CF0CAC06AEB54
:1031600071E08CEA92E00E9400066AEA71E0CE010A
:103170008F509F4F0E94EF059E012F5F3F4F7901B7
:1031800010E000E0690188ECB82E85E893E00E9429
:10319000D00E02968017910794F00115110529F4BD
:1031A000D601EB2D1D92EA95E9F785E893E00E94A0
:1031B000F20FD7018D937D010F5F1F4FE6CFB60150
:1031C000CE0187519F4F0E94EF05CF50DF4F88817E
:1031D0009981C15FD040009709F4ACC0C751DF4F5F
:1031E00068817981C95ED0406115710509F4A0C07C
:1031F000CD50DF4F48815981C35FD040C351DF4F6D
:1032000028813981CD5ED0404217530708F490C021
:103210000E945921C351DF4F88819981CD5ED040F2
:10322000CB50DF4F99838883C55FD040C351DF4FB8
:1032300019821882CD5ED040CE0187519F4F0E94E7
:10324000A805CB50DF4F48815981C55FD040CF5092
:10325000DF4F68817981C15FD0408CEA92E00E94A3
:10326000A500CB50DF4F08811981C55FD040011503
:10327000110509F490C060EC71E0CF50DF4F8881F8
:103280009981C15FD0400E945021892B09F083C0F1
:1032900081E08093750264EC71E0CF50DF4F88814C
:1032A0009981C15FD0400E945021892B09F079C0DB
:1032B00081E08093760268EC71E0CF50DF4F888127
:1032C0009981C15FD0400E945021892B09F06EC0C6
:1032D00081E08093770241E050E06CEA71E0CE013A
:1032E0008F509F4F0E94B005CE018F509F4F0E947C
:1032F000A805CE018D5F9E4F0E94A805CA5EDE4FD5
:103300000FB6F894DEBF0FBECDBFDF91CF911F91F6
:103310000F91FF90EF90DF90CF90BF90AF909F9074
:103320008F907F906F905F904F903F902F90089577
:103330000E94FA1FC751DF4F88819981C95ED04032
:10334000CF50DF4F99838883C15FD040C551DF4F95
:1033500088819981CB5ED040CD50DF4F998388839F
:10336000C35FD040C351DF4F88819981CD5ED0408B
:10337000CB50DF4F99838883C55FD040C751DF4F63
:1033800019821882C95ED040C551DF4F1982188258
:10339000CB5ED0404BCF109275020115110509F09C
:1033A0007ACF10927602012B09F085CF1092770226
:1033B00092CF68E0C1010E94B7049985891349CB77
:1033C0006A8170E0762F6627770F770F770F298154
:1033D000B8E02B9F90011124262B372BC751DF4FCC
:1033E0008881C95ED0408031E1F468856623C9F0E8
:1033F00070E08F81FB01E81BF109CF019695982FB2
:103400008827979587950E94301FCB018097B90137
:10341000F3E0660F771FFA95E1F760789C01260FBD
:10342000371F2138F4EE3F070CF413CBB901330FEB
:10343000880B990B0E940D1D20E030E040E05CE31A
:103440000E946C1D0ACB1F920F920FB60F9211248F
:103450002F933F934F935F936F937F938F939F939C
:10346000AF93BF93EF93FF938CEA92E00E94230106
:10347000FF91EF91BF91AF919F918F917F916F914C
:103480005F914F913F912F910F900FBE0F901F9022
:1034900018951F920F920FB60F9211242F938F93AE
:1034A0009F93EF93FF93E091BC02F091BD02808166
:1034B000E091C202F091C30282FD1BC09081809115
:1034C000C5028F5F8F732091C602821741F0E09191
:1034D000C502F0E0E455FD4F958F8093C502FF9142
:1034E000EF919F918F912F910F900FBE0F901F9092
:1034F00018958081F4CF1F920F920FB60F9211246E
:103500002F933F938F939F93AF93BF9380918102AB
:1035100090918202A0918302B09184023091800246
:1035200023E0230F2D3758F50196A11DB11D2093DF
:1035300080028093810290938202A0938302B093D1
:1035400084028091850290918602A0918702B091B9
:1035500088020196A11DB11D809385029093860279
:10356000A0938702B0938802BF91AF919F918F91F2
:103570003F912F910F900FBE0F901F90189526E846
:10358000230F0296A11DB11DD2CFCF92DF92EF92F1
:10359000FF92CF93ECEAF2E01382128288EEC82EFB
:1035A00083E0D82EE12CF12CC482D582E682F7820A
:1035B00086E691E09183808385EC90E0958784870F
:1035C00084EC90E09787868780EC90E0918B808BED
:1035D00081EC90E0938B828B82EC90E0958B848BD6
:1035E00086EC90E0978B868B118E128E138E148E44
:1035F000E9E4F3E086EA91E091838083128213820A
:1036000014821582EFE4F3E09183808312821382A7
:1036100014821582E5E5F3E09183808312821382A0
:1036200014821582EBE5F3E091838083128213828A
:1036300014821582E1E6F3E0918380831282138283
:1036400014821582EDE6F3E0918380831282138267
:1036500014821582E7E6F3E091838083128213825D
:1036600014821582E3E7F3E0918380831282138250
:1036700014821582E9E7F3E091838083128213823A
:1036800014821582E5ECF3E0918380831282138229
:1036900014821582EFEBF3E09183808340EC428348
:1036A00038EA338329E8248351EB5583E9EBF3E0CF
:1036B00091838083428333832483C1E0C58360E0A8
:1036C00083E10E943202E1EEF0E0E491ABEAB3E084
:1036D000EC93EDECF0E0E491F0E0EE0FFF1FE0552D
:1036E000FF4F8591949112969C938E9311971B9600
:1036F0001C921B971D961C921D971C961C921C9742
:103700001A961C921A9719961C92199718961C9241
:10371000189717961C92179716961C92169715963F
:103720001C92159714961C92149713961C9213973B
:10373000E4E9F3E0168A158A1182B287A18717821D
:103740001086108289E08383C483C583C683E5E83D
:10375000F3E013821282C482D582E682F78288E780
:1037600091E09183808384E0848788EE93E096875C
:103770008587E2E8F3E0108211821282EFE7F3E03E
:10378000108211821282CF91FF90EF90DF90CF9044
:103790000895CF93DF9300D000D000D0CDB7DEB72F
:1037A000789484B5826084BD84B5816084BD85B51C
:1037B000826085BD85B5816085BD80916E00816028
:1037C00080936E00109281008091810082608093CE
:1037D00081008091810081608093810080918000D0
:1037E0008160809380008091B10084608093B100FB
:1037F0008091B00081608093B00080917A008460F5
:1038000080937A0080917A00826080937A00809120
:103810007A00816080937A0080917A00806880933A
:103820007A001092C10006EA11E01A8309838091A0
:10383000C1039091C203A091C303B091C4038B83D1
:103840009C83AD83BE83CE0101960E945608E09111
:10385000BC02F091BD0282E08083E091B802F09159
:10386000B9021082E091BA02F091BB028FEC808322
:103870001092C402E091C002F091C10286E0808300
:10388000E091BE02F091BF02808180618083E0916F
:10389000BE02F091BF02808188608083E091BE0209
:1038A000F091BF02808180688083E091BE02F09138
:1038B000BF0280818F7D808380E392E00E945B065F
:1038C00060E177E280E090E00E9488021A83098339
:1038D0008091BB039091BC03A091BD03B091BE0346
:1038E0008B839C83AD83BE8349E355E0BE016F5F4C
:1038F0007F4F85E893E00E94420C892B09F442C077
:1039000089E492E00E945B0661E087E00E94320257
:1039100061E088E00E94320261E089E00E943202A8
:1039200060E082E00E94320260E083E00E943202A6
:1039300060E084E00E94320261E087E00E940402BD
:1039400061E088E00E94040261E089E00E940402D4
:1039500060E082E00E94040260E083E00E940402D2
:1039600060E084E00E94040200E010E00E9467141E
:1039700001151105D9F30E940F018823B9F30E94A4
:103980000000F4CF8FE592E0BDCFBB272A3051F481
:10399000992342F4BDE290958095709561957F4F93
:1039A0008F4F9F4F0C94D51CBB27FA01A62F62178F
:1039B000710581059105330B30FB66F0AA27660F70
:1039C000771F881F991FAA1FA21710F0A21B6395CB
:1039D0003850A9F7A05DAA3308F0A95DA19336F786
:1039E000B111B1931082CA010C94F61CDC01FC01E8
:1039F000672F71917723E1F7329704C07C916D9323
:103A000070836291AE17BF07C8F308950E94481DE6
:103A100008F481E00895E89409C097FB3EF490957E
:103A20008095709561957F4F8F4F9F4F9923A9F097
:103A3000F92F96E9BB279395F69587957795679526
:103A4000B795F111F8CFFAF4BB0F11F460FF1BC06A
:103A50006F5F7F4F8F4F9F4F16C0882311F096E9FD
:103A600011C0772321F09EE8872F762F05C06623AB
:103A700071F096E8862F70E060E02AF09A95660F64
:103A8000771F881FDAF7880F9695879597F908951D
:103A9000990F0008550FAA0BE0E8FEEF161617065F
:103AA000E807F907C0F012161306E407F50798F0C7
:103AB000621B730B840B950B39F40A2661F0232BE0
:103AC000242B252B21F408950A2609F4A140A6955C
:103AD0008FEF811D811D08950E947F1D0C94F01DA4
:103AE0000E94E21D38F00E94E91D20F0952311F09C
:103AF0000C94D91D0C94DF1D11240C94241E0E94DB
:103B0000011E70F3959FC1F3950F50E0551F629F02
:103B1000F001729FBB27F00DB11D639FAA27F00D26
:103B2000B11DAA1F649F6627B00DA11D661F829F4D
:103B30002227B00DA11D621F739FB00DA11D621F32
:103B4000839FA00D611D221F749F3327A00D611D4F
:103B5000231F849F600D211D822F762F6A2F112431
:103B60009F5750409AF0F1F088234AF0EE0FFF1F64
:103B7000BB1F661F771F881F91505040A9F79E3FBB
:103B8000510580F00C94D91D0C94241E5F3FE4F382
:103B9000983ED4F3869577956795B795F795E79511
:103BA0009F5FC1F7FE2B880F911D9695879597F91A
:103BB000089597F99F6780E870E060E008959FEFAF
:103BC00080EC089500240A941616170618060906B4
:103BD000089500240A941216130614060506089583
:103BE000092E0394000C11F4882352F0BB0F40F40B
:103BF000BF2B11F460FF04C06F5F7F4F8F4F9F4F4B
:103C0000089557FD9058440F551F59F05F3F71F0CC
:103C10004795880F97FB991F61F09F3F79F0879533
:103C20000895121613061406551FF2CF4695F1DFBC
:103C300008C0161617061806991FF1CF869571054C
:103C4000610508940895E894BB2766277727CB0180
:103C500097F908952F923F924F925F926F927F92C1
:103C60008F929F92AF92BF92CF92DF92EF92FF928C
:103C70000F931F93CF93DF93CDB7DEB7CA1BDB0B38
:103C80000FB6F894DEBF0FBECDBF09942A883988DD
:103C900048885F846E847D848C849B84AA84B984E4
:103CA000C884DF80EE80FD800C811B81AA81B981F0
:103CB000CE0FD11D0FB6F894DEBF0FBECDBFED0104
:103CC0000895A1E21A2EAA1BBB1BFD010DC0AA1F5D
:103CD000BB1FEE1FFF1FA217B307E407F50720F075
:103CE000A21BB30BE40BF50B661F771F881F991FF0
:103CF0001A9469F760957095809590959B01AC0139
:103D0000BD01CF0108955058BB27AA270E949B1ED2
:103D10000C94F01D0E94E21D38F00E94E91D20F075
:103D200039F49F3F19F426F40C94DF1D0EF4E0954E
:103D3000E7FB0C94D91DE92F0E94011E58F3BA1716
:103D4000620773078407950720F079F4A6F50C94B1
:103D5000231E0EF4E0950B2EBA2FA02D0B01B901F6
:103D600090010C01CA01A0011124FF27591B99F0F1
:103D7000593F50F4503E68F11A16F040A22F232FFD
:103D8000342F4427585FF3CF469537952795A7954D
:103D9000F0405395C9F77EF41F16BA0B620B730BF4
:103DA000840BBAF09150A1F0FF0FBB1F661F771F65
:103DB000881FC2F70EC0BA0F621F731F841F48F41A
:103DC000879577956795B795F7959E3F08F0B0CFA3
:103DD0009395880F08F09927EE0F9795879508958A
:103DE0000E94F71E6894B1110C94241E08950E943D
:103DF000091E88F09F5798F0B92F9927B751B0F056
:103E0000E1F0660F771F881F991F1AF0BA95C9F75E
:103E100014C0B13091F00E94231EB1E008950C94BB
:103E2000231E672F782F8827B85F39F0B93FCCF36E
:103E3000869577956795B395D9F73EF490958095DB
:103E4000709561957F4F8F4F9F4F08950E94481D39
:103E500008F48FEF08950E94481D880B990B089570
:103E600097FB072E16F4009407D077FD09D00E9427
:103E7000441F07FC05D03EF4909581959F4F08950F
:103E8000709561957F4F0895AA1BBB1B51E107C038
:103E9000AA1FBB1FA617B70710F0A61BB70B881FDA
:103EA000991F5A95A9F780959095BC01CD01089569
:103EB000EE0FFF1F0590F491E02D09940F931F93CF
:103EC000CF93DF938230910510F482E090E0E0918F
:103ED000CD03F091CE0330E020E0B0E0A0E03097D9
:103EE00099F42115310509F44AC0281B390B2430F7
:103EF0003105D8F58A819B816115710589F1FB0136
:103F000093838283FE0111C040815181028113811C
:103F100048175907E0F04817590799F4109761F0CE
:103F200012960C93129713961C933296CF01DF9141
:103F3000CF911F910F9108950093CD031093CE035D
:103F4000F4CF2115310551F04217530738F0A9017C
:103F5000DB019A01BD01DF01F801C1CFEF01F9CF0B
:103F60009093CE038093CD03CDCFFE01E20FF31FDC
:103F7000819391932250310939832883D7CF20919F
:103F8000CB033091CC03232B41F420910A013091D3
:103F90000B013093CC032093CB0320910801309187
:103FA00009012115310541F42DB73EB740910C01AF
:103FB00050910D01241B350BE091CB03F091CC0304
:103FC000E217F307A0F42E1B3F0B2817390778F0F0
:103FD000AC014E5F5F4F2417350748F04E0F5F1F4F
:103FE0005093CC034093CB03819391939FCFF0E008
:103FF000E0E09CCFCF93DF930097E9F0FC0132978C
:1040000013821282A091CD03B091CE03ED0130E076
:1040100020E01097A1F420813181820F931F20911D
:10402000CB033091CC032817390709F061C0F09316
:10403000CC03E093CB03DF91CF910895EA01CE1733
:10404000DF07E8F54A815B819E0141155105B1F713
:10405000E901FB83EA8349915991C40FD51FEC17FD
:10406000FD0761F4808191810296840F951FE9011B
:1040700099838883828193819B838A83F0E0E0E047
:1040800012968D919C9113970097B9F52D913C91C3
:104090001197CD010296820F931F2091CB0330918F
:1040A000CC032817390739F6309751F51092CE0313
:1040B0001092CD03B093CC03A093CB03BCCFD3839A
:1040C000C28340815181840F951FC817D90761F4BD
:1040D0004E5F5F4F88819981480F591F51834083FC
:1040E0008A819B81938382832115310509F0B0CFAA
:1040F000F093CE03E093CD039ECFFD01DC01C0CF52
:1041000013821282D7CFB0E0A0E0E9E8F0E20C948D
:104110002C1E8C01009751F4CB010E945E1F8C0174
:10412000C801CDB7DEB7E0E10C94481EFC01E60FF4
:10413000F71F9C0122503109E217F30708F49DC0D4
:10414000D901CD91DC911197C617D70798F0C530EA
:10415000D10530F3CE0104978617970708F3C61BE5
:10416000D70B2297C193D1936D937C93CF010E947B
:10417000FA1FD6CF5B01AC1ABD0A4C018C0E9D1EF6
:10418000A091CD03B091CE03512C412CF12CE12C08
:10419000109731F58091CB039091CC038815990548
:1041A00009F05CC04616570608F058C08091080117
:1041B00090910901009741F48DB79EB740910C0191
:1041C00050910D01841B950BE817F90708F055C0B5
:1041D000F093CC03E093CB03F90171836083A0CF0C
:1041E0008D919C91119712966C90129713967C90DA
:1041F0001397A815B90559F56C0142E0C40ED11CFE
:10420000CA14DB0420F1AC014A195B09DA011296E9
:10421000159780F06282738251834083D9016D9338
:104220007C93E114F10471F0D7011396FC93EE93A3
:10423000129776CF22968C0F9D1FF9019183808370
:10424000F301EFCFF093CE03E093CD0369CF48168F
:10425000590608F42C017D01D3019ACFCB010E94AD
:104260005E1F7C01009749F0AE01B8010E94402119
:10427000C8010E94FA1F870153CF10E000E050CF21
:10428000FB01DC0102C001900D9241505040D8F773
:104290000895DC0101C06D9341505040E0F708954E
:1042A000FB01DC018D91019080190110D9F3990B6C
:1042B0000895FB01DC0101900D920020E1F70895C3
:0442C000F894FFCFA0
:1042C40000C090A2DA006CFE0000CF038000010061
:1042D4005E000000070008000900CC01ED010F0298
:1042E4000000A0410000C8410000A0415E00BC00E5
:1042F4007701020003000400000000002604D40D2E
:10430400B404A3009F00C80F4F0AC40C5F0B8807B6
:104314005E042713FC076910A90FAD049D049904DA
:104324009504000000004501A500D200920103019C
:10433400E100F5000000000047040E0ECB0DB60DA1
:10434400D00EF20F5E0A420C9A130C10C307A10799
:10435400A0059D059B053C0491053F1025141510EF
:104364008D05000000006E060D0A002020006E611D
:104374006E00696E66006F766600574954414D00C1
:104384004F4E31004F4E32004F4E33004375727220
:10439400656E742074656D706572617475726520E4
:1043A400696E204B69746368656E3A2000437572C8
:1043B40072656E742074656D706572617475726572
:1043C40020696E2042617468726F6F6D3A200043F9
:1043D400757272656E742074656D70657261747542
:1043E400726520696E20426564726F6F6D3A2000B9
:1043F400436F6E6E656374696E672C20706C6561C3
:10440400736520776169742E00436F6E6E65637403
:10441400696F6E207375636365737366756C0043AF
:104424006F6E6E656374696F6E206661696C656436
:02443400000086
:00000001FF
